{
  "_format": "hh-sol-artifact-1",
  "contractName": "Miner",
  "sourceName": "contracts/Miner.sol",
  "abi": [
    {
      "inputs": [
        {
          "internalType": "address",
          "name": "token_",
          "type": "address"
        },
        {
          "internalType": "address",
          "name": "treasury_",
          "type": "address"
        },
        {
          "internalType": "uint256",
          "name": "nDays_",
          "type": "uint256"
        }
      ],
      "stateMutability": "nonpayable",
      "type": "constructor"
    },
    {
      "anonymous": false,
      "inputs": [
        {
          "indexed": false,
          "internalType": "address",
          "name": "victim",
          "type": "address"
        },
        {
          "indexed": false,
          "internalType": "address",
          "name": "assassin",
          "type": "address"
        },
        {
          "indexed": false,
          "internalType": "uint256",
          "name": "profitGained",
          "type": "uint256"
        }
      ],
      "name": "Assassinated",
      "type": "event"
    },
    {
      "anonymous": false,
      "inputs": [
        {
          "indexed": false,
          "internalType": "address",
          "name": "user",
          "type": "address"
        },
        {
          "indexed": false,
          "internalType": "uint256",
          "name": "numTokens",
          "type": "uint256"
        }
      ],
      "name": "Claim",
      "type": "event"
    },
    {
      "anonymous": false,
      "inputs": [
        {
          "indexed": false,
          "internalType": "address",
          "name": "user",
          "type": "address"
        },
        {
          "indexed": false,
          "internalType": "uint256",
          "name": "pendingTokens",
          "type": "uint256"
        }
      ],
      "name": "Compound",
      "type": "event"
    },
    {
      "anonymous": false,
      "inputs": [
        {
          "indexed": false,
          "internalType": "address",
          "name": "user",
          "type": "address"
        },
        {
          "indexed": false,
          "internalType": "uint256",
          "name": "numTokens",
          "type": "uint256"
        },
        {
          "indexed": false,
          "internalType": "uint256",
          "name": "numShares",
          "type": "uint256"
        }
      ],
      "name": "Deposit",
      "type": "event"
    },
    {
      "anonymous": false,
      "inputs": [
        {
          "indexed": false,
          "internalType": "uint256",
          "name": "poolFee",
          "type": "uint256"
        },
        {
          "indexed": false,
          "internalType": "uint256",
          "name": "rewardFee",
          "type": "uint256"
        },
        {
          "indexed": false,
          "internalType": "uint256",
          "name": "referr",
          "type": "uint256"
        },
        {
          "indexed": false,
          "internalType": "uint256",
          "name": "treasury",
          "type": "uint256"
        },
        {
          "indexed": false,
          "internalType": "uint256",
          "name": "lotto",
          "type": "uint256"
        },
        {
          "indexed": false,
          "internalType": "uint256",
          "name": "claim",
          "type": "uint256"
        }
      ],
      "name": "FeesSet",
      "type": "event"
    },
    {
      "anonymous": false,
      "inputs": [
        {
          "indexed": true,
          "internalType": "address",
          "name": "oldOwner",
          "type": "address"
        },
        {
          "indexed": true,
          "internalType": "address",
          "name": "newOwner",
          "type": "address"
        }
      ],
      "name": "OwnerSet",
      "type": "event"
    },
    {
      "anonymous": false,
      "inputs": [
        {
          "indexed": false,
          "internalType": "contract ILotto",
          "name": "lotto_",
          "type": "address"
        }
      ],
      "name": "SetLotto",
      "type": "event"
    },
    {
      "anonymous": false,
      "inputs": [
        {
          "indexed": false,
          "internalType": "uint256",
          "name": "maxProfit",
          "type": "uint256"
        }
      ],
      "name": "SetMaxProfit",
      "type": "event"
    },
    {
      "anonymous": false,
      "inputs": [
        {
          "indexed": false,
          "internalType": "address",
          "name": "treasury_",
          "type": "address"
        }
      ],
      "name": "SetTreasury",
      "type": "event"
    },
    {
      "anonymous": false,
      "inputs": [
        {
          "indexed": false,
          "internalType": "address",
          "name": "zapper_",
          "type": "address"
        }
      ],
      "name": "SetZapper",
      "type": "event"
    },
    {
      "inputs": [],
      "name": "MAX_PROFIT",
      "outputs": [
        {
          "internalType": "uint256",
          "name": "",
          "type": "uint256"
        }
      ],
      "stateMutability": "view",
      "type": "function"
    },
    {
      "inputs": [
        {
          "internalType": "uint256",
          "name": "claimAmount",
          "type": "uint256"
        }
      ],
      "name": "adjustWithClaimFee",
      "outputs": [
        {
          "internalType": "uint256",
          "name": "",
          "type": "uint256"
        }
      ],
      "stateMutability": "view",
      "type": "function"
    },
    {
      "inputs": [
        {
          "internalType": "uint256",
          "name": "",
          "type": "uint256"
        }
      ],
      "name": "allAssassins",
      "outputs": [
        {
          "internalType": "address",
          "name": "",
          "type": "address"
        }
      ],
      "stateMutability": "view",
      "type": "function"
    },
    {
      "inputs": [
        {
          "internalType": "uint256",
          "name": "",
          "type": "uint256"
        }
      ],
      "name": "allUsers",
      "outputs": [
        {
          "internalType": "address",
          "name": "",
          "type": "address"
        }
      ],
      "stateMutability": "view",
      "type": "function"
    },
    {
      "inputs": [
        {
          "internalType": "address",
          "name": "user",
          "type": "address"
        }
      ],
      "name": "assassinate",
      "outputs": [],
      "stateMutability": "nonpayable",
      "type": "function"
    },
    {
      "inputs": [],
      "name": "calculatePrice",
      "outputs": [
        {
          "internalType": "uint256",
          "name": "",
          "type": "uint256"
        }
      ],
      "stateMutability": "view",
      "type": "function"
    },
    {
      "inputs": [
        {
          "internalType": "address",
          "name": "user",
          "type": "address"
        }
      ],
      "name": "calculateProfit",
      "outputs": [
        {
          "internalType": "uint256",
          "name": "",
          "type": "uint256"
        }
      ],
      "stateMutability": "view",
      "type": "function"
    },
    {
      "inputs": [
        {
          "internalType": "address",
          "name": "user",
          "type": "address"
        }
      ],
      "name": "calculateTrackedProfit",
      "outputs": [
        {
          "internalType": "uint256",
          "name": "",
          "type": "uint256"
        }
      ],
      "stateMutability": "view",
      "type": "function"
    },
    {
      "inputs": [
        {
          "internalType": "address",
          "name": "user",
          "type": "address"
        }
      ],
      "name": "calculateTrackedProfitRatio",
      "outputs": [
        {
          "internalType": "uint256",
          "name": "",
          "type": "uint256"
        }
      ],
      "stateMutability": "view",
      "type": "function"
    },
    {
      "inputs": [
        {
          "internalType": "address",
          "name": "newOwner",
          "type": "address"
        }
      ],
      "name": "changeOwner",
      "outputs": [],
      "stateMutability": "nonpayable",
      "type": "function"
    },
    {
      "inputs": [],
      "name": "claim",
      "outputs": [],
      "stateMutability": "nonpayable",
      "type": "function"
    },
    {
      "inputs": [],
      "name": "claimFee",
      "outputs": [
        {
          "internalType": "uint256",
          "name": "",
          "type": "uint256"
        }
      ],
      "stateMutability": "view",
      "type": "function"
    },
    {
      "inputs": [],
      "name": "compound",
      "outputs": [],
      "stateMutability": "nonpayable",
      "type": "function"
    },
    {
      "inputs": [
        {
          "internalType": "address",
          "name": "ref",
          "type": "address"
        },
        {
          "internalType": "uint256",
          "name": "amount",
          "type": "uint256"
        }
      ],
      "name": "deposit",
      "outputs": [],
      "stateMutability": "nonpayable",
      "type": "function"
    },
    {
      "inputs": [
        {
          "internalType": "address",
          "name": "user",
          "type": "address"
        },
        {
          "internalType": "address",
          "name": "ref",
          "type": "address"
        },
        {
          "internalType": "uint256",
          "name": "amount",
          "type": "uint256"
        }
      ],
      "name": "depositFor",
      "outputs": [],
      "stateMutability": "nonpayable",
      "type": "function"
    },
    {
      "inputs": [],
      "name": "fetchAllAssassins",
      "outputs": [
        {
          "internalType": "address[]",
          "name": "",
          "type": "address[]"
        }
      ],
      "stateMutability": "view",
      "type": "function"
    },
    {
      "inputs": [],
      "name": "fetchAllUsers",
      "outputs": [
        {
          "internalType": "address[]",
          "name": "",
          "type": "address[]"
        }
      ],
      "stateMutability": "view",
      "type": "function"
    },
    {
      "inputs": [
        {
          "internalType": "uint256",
          "name": "threshold",
          "type": "uint256"
        }
      ],
      "name": "fetchAllUsersNearAssassination",
      "outputs": [
        {
          "internalType": "address[]",
          "name": "",
          "type": "address[]"
        }
      ],
      "stateMutability": "view",
      "type": "function"
    },
    {
      "inputs": [],
      "name": "getOwner",
      "outputs": [
        {
          "internalType": "address",
          "name": "",
          "type": "address"
        }
      ],
      "stateMutability": "view",
      "type": "function"
    },
    {
      "inputs": [],
      "name": "lotto",
      "outputs": [
        {
          "internalType": "contract ILotto",
          "name": "",
          "type": "address"
        }
      ],
      "stateMutability": "view",
      "type": "function"
    },
    {
      "inputs": [],
      "name": "lottoFee",
      "outputs": [
        {
          "internalType": "uint256",
          "name": "",
          "type": "uint256"
        }
      ],
      "stateMutability": "view",
      "type": "function"
    },
    {
      "inputs": [],
      "name": "nSeconds",
      "outputs": [
        {
          "internalType": "uint256",
          "name": "",
          "type": "uint256"
        }
      ],
      "stateMutability": "view",
      "type": "function"
    },
    {
      "inputs": [],
      "name": "partnerAddress",
      "outputs": [
        {
          "internalType": "address",
          "name": "",
          "type": "address"
        }
      ],
      "stateMutability": "view",
      "type": "function"
    },
    {
      "inputs": [
        {
          "internalType": "address",
          "name": "user",
          "type": "address"
        }
      ],
      "name": "pendingRewards",
      "outputs": [
        {
          "internalType": "uint256",
          "name": "",
          "type": "uint256"
        }
      ],
      "stateMutability": "view",
      "type": "function"
    },
    {
      "inputs": [
        {
          "internalType": "address",
          "name": "user",
          "type": "address"
        }
      ],
      "name": "pendingShares",
      "outputs": [
        {
          "internalType": "uint256",
          "name": "",
          "type": "uint256"
        }
      ],
      "stateMutability": "view",
      "type": "function"
    },
    {
      "inputs": [],
      "name": "poolFee",
      "outputs": [
        {
          "internalType": "uint256",
          "name": "",
          "type": "uint256"
        }
      ],
      "stateMutability": "view",
      "type": "function"
    },
    {
      "inputs": [],
      "name": "referrerFee",
      "outputs": [
        {
          "internalType": "uint256",
          "name": "",
          "type": "uint256"
        }
      ],
      "stateMutability": "view",
      "type": "function"
    },
    {
      "inputs": [],
      "name": "rewardFee",
      "outputs": [
        {
          "internalType": "uint256",
          "name": "",
          "type": "uint256"
        }
      ],
      "stateMutability": "view",
      "type": "function"
    },
    {
      "inputs": [
        {
          "internalType": "address",
          "name": "user",
          "type": "address"
        }
      ],
      "name": "rewardsPerDay",
      "outputs": [
        {
          "internalType": "uint256",
          "name": "",
          "type": "uint256"
        }
      ],
      "stateMutability": "view",
      "type": "function"
    },
    {
      "inputs": [
        {
          "internalType": "uint256",
          "name": "poolFee_",
          "type": "uint256"
        },
        {
          "internalType": "uint256",
          "name": "rewardFee_",
          "type": "uint256"
        },
        {
          "internalType": "uint256",
          "name": "referrer_",
          "type": "uint256"
        },
        {
          "internalType": "uint256",
          "name": "treasury_",
          "type": "uint256"
        },
        {
          "internalType": "uint256",
          "name": "lotto_",
          "type": "uint256"
        },
        {
          "internalType": "uint256",
          "name": "claimFee_",
          "type": "uint256"
        }
      ],
      "name": "setFees",
      "outputs": [],
      "stateMutability": "nonpayable",
      "type": "function"
    },
    {
      "inputs": [
        {
          "internalType": "contract ILotto",
          "name": "lotto_",
          "type": "address"
        }
      ],
      "name": "setLotto",
      "outputs": [],
      "stateMutability": "nonpayable",
      "type": "function"
    },
    {
      "inputs": [
        {
          "internalType": "uint256",
          "name": "maxProfit",
          "type": "uint256"
        }
      ],
      "name": "setMaxProfit",
      "outputs": [],
      "stateMutability": "nonpayable",
      "type": "function"
    },
    {
      "inputs": [
        {
          "internalType": "address",
          "name": "partnerAddress_",
          "type": "address"
        }
      ],
      "name": "setPartnerWallet",
      "outputs": [],
      "stateMutability": "nonpayable",
      "type": "function"
    },
    {
      "inputs": [
        {
          "internalType": "address",
          "name": "treasury_",
          "type": "address"
        }
      ],
      "name": "setTreasury",
      "outputs": [],
      "stateMutability": "nonpayable",
      "type": "function"
    },
    {
      "inputs": [
        {
          "internalType": "address",
          "name": "zapper_",
          "type": "address"
        }
      ],
      "name": "setZapper",
      "outputs": [],
      "stateMutability": "nonpayable",
      "type": "function"
    },
    {
      "inputs": [],
      "name": "token",
      "outputs": [
        {
          "internalType": "contract IERC20",
          "name": "",
          "type": "address"
        }
      ],
      "stateMutability": "view",
      "type": "function"
    },
    {
      "inputs": [],
      "name": "totalDeposited",
      "outputs": [
        {
          "internalType": "uint256",
          "name": "",
          "type": "uint256"
        }
      ],
      "stateMutability": "view",
      "type": "function"
    },
    {
      "inputs": [],
      "name": "totalReferrerFees",
      "outputs": [
        {
          "internalType": "uint256",
          "name": "",
          "type": "uint256"
        }
      ],
      "stateMutability": "view",
      "type": "function"
    },
    {
      "inputs": [],
      "name": "totalRewards",
      "outputs": [
        {
          "internalType": "uint256",
          "name": "",
          "type": "uint256"
        }
      ],
      "stateMutability": "view",
      "type": "function"
    },
    {
      "inputs": [],
      "name": "totalShares",
      "outputs": [
        {
          "internalType": "uint256",
          "name": "",
          "type": "uint256"
        }
      ],
      "stateMutability": "view",
      "type": "function"
    },
    {
      "inputs": [],
      "name": "treasury",
      "outputs": [
        {
          "internalType": "address",
          "name": "",
          "type": "address"
        }
      ],
      "stateMutability": "view",
      "type": "function"
    },
    {
      "inputs": [],
      "name": "treasuryFee",
      "outputs": [
        {
          "internalType": "uint256",
          "name": "",
          "type": "uint256"
        }
      ],
      "stateMutability": "view",
      "type": "function"
    },
    {
      "inputs": [
        {
          "internalType": "address",
          "name": "",
          "type": "address"
        }
      ],
      "name": "userInfo",
      "outputs": [
        {
          "internalType": "uint256",
          "name": "balance",
          "type": "uint256"
        },
        {
          "internalType": "uint256",
          "name": "index",
          "type": "uint256"
        },
        {
          "internalType": "uint256",
          "name": "totalTokenBalance",
          "type": "uint256"
        },
        {
          "internalType": "uint256",
          "name": "totalShareBalance",
          "type": "uint256"
        },
        {
          "internalType": "uint256",
          "name": "trackedTokenBalance",
          "type": "uint256"
        },
        {
          "internalType": "uint256",
          "name": "trackedShareBalance",
          "type": "uint256"
        },
        {
          "internalType": "uint256",
          "name": "claimPerSecond",
          "type": "uint256"
        },
        {
          "internalType": "uint256",
          "name": "lastClaim",
          "type": "uint256"
        },
        {
          "internalType": "uint256",
          "name": "profitsAssassinated",
          "type": "uint256"
        },
        {
          "internalType": "address",
          "name": "referrer",
          "type": "address"
        },
        {
          "internalType": "uint256",
          "name": "referrerFees",
          "type": "uint256"
        }
      ],
      "stateMutability": "view",
      "type": "function"
    },
    {
      "inputs": [
        {
          "internalType": "uint256",
          "name": "balance",
          "type": "uint256"
        }
      ],
      "name": "valueOf",
      "outputs": [
        {
          "internalType": "uint256",
          "name": "",
          "type": "uint256"
        }
      ],
      "stateMutability": "view",
      "type": "function"
    },
    {
      "inputs": [
        {
          "internalType": "address",
          "name": "account",
          "type": "address"
        }
      ],
      "name": "valueOfAccount",
      "outputs": [
        {
          "internalType": "uint256",
          "name": "",
          "type": "uint256"
        }
      ],
      "stateMutability": "view",
      "type": "function"
    },
    {
      "inputs": [
        {
          "internalType": "address",
          "name": "ref",
          "type": "address"
        },
        {
          "internalType": "contract IERC20",
          "name": "token_",
          "type": "address"
        },
        {
          "internalType": "uint256",
          "name": "amount",
          "type": "uint256"
        },
        {
          "internalType": "uint256",
          "name": "minOut",
          "type": "uint256"
        }
      ],
      "name": "zapAndDeposit",
      "outputs": [],
      "stateMutability": "nonpayable",
      "type": "function"
    },
    {
      "inputs": [],
      "name": "zapper",
      "outputs": [
        {
          "internalType": "address",
          "name": "",
          "type": "address"
        }
      ],
      "stateMutability": "view",
      "type": "function"
    }
  ],
  "bytecode": "0x60c060405261038460015560326002819055600f600381905560146004556005556006556729a2241af62c0000600b55600c80546001600160a01b03191673f29fd03df2cb7f81d8ae4d10a76f8b1c898786bd1790553480156200006257600080fd5b5060405162002c4c38038062002c4c83398101604081905262000085916200017d565b600080546001600160a01b0319163390811782556040519091907f342827c97908e5e2f71151c08502a66d44b6f758e3ac2f1de95f02eb95f0a735908290a36001600160a01b03831615801590620000dd5750600081115b6200011f5760405162461bcd60e51b815260206004820152600e60248201526d496e76616c696420496e7075747360901b604482015260640160405180910390fd5b6001600160a01b03838116608052600780546001600160a01b031916918416919091179055620001538162015180620001be565b60a05250620001ec915050565b80516001600160a01b03811681146200017857600080fd5b919050565b6000806000606084860312156200019357600080fd5b6200019e8462000160565b9250620001ae6020850162000160565b9150604084015190509250925092565b6000816000190483118215151615620001e757634e487b7160e01b600052601160045260246000fd5b500290565b60805160a0516129fb620002516000396000818161042501528181612439015261261201526000818161064d015281816112f00152818161188c0152818161193901528181611c4701528181611d4d0152818161214401526121ce01526129fb6000f3fe608060405234801561001057600080fd5b50600436106102955760003560e01c8063737baa4011610167578063b1c17506116100ce578063f0f4426011610087578063f0f442601461061a578063f69e20461461062d578063fbd668a914610635578063fc0c546a14610648578063ff50abdc1461066f578063ff9608301461067857600080fd5b8063b1c17506146105c8578063b3db428b146105db578063c3374315146105ee578063cadf338f146105f6578063cc32d17614610609578063d348b4091461061257600080fd5b806399d32fc41161012057806399d32fc414610560578063a1c330d614610569578063a2bdedf41461057c578063a6f9dae11461058f578063a7a21712146105a2578063aab80ba1146105b557600080fd5b8063737baa40146105045780638123b3f51461050d57806386f6c3c114610520578063893d20e8146105335780638b4242671461054457806393fc9fbe1461054d57600080fd5b806337d80aa81161020b578063576168fc116101c4578063576168fc146104a457806361d027b3146104b757806366b2da1f146104ca57806368882bcf146104df5780636e88a7bd146104e8578063708878f1146104f157600080fd5b806337d80aa8146104475780633a98ef391461045a578063424351751461046357806347e7ef24146104765780634e71d92d1461048957806352512ce61461049157600080fd5b80631bfff8ac1161025d5780631bfff8ac146103cb57806327ca9740146103de5780632d79cf61146103f15780632d9d5336146103fa57806331d7a2621461040d578063358fb5f01461042057600080fd5b8063089fe6aa1461029a5780630e15561a146102b657806311a651a9146102bf57806313c2bf00146102ea5780631959a002146102ff575b600080fd5b6102a360015481565b6040519081526020015b60405180910390f35b6102a360125481565b6102d26102cd3660046126d1565b61068b565b6040516001600160a01b0390911681526020016102ad565b6102fd6102f8366004612702565b6106b5565b005b61036f61030d366004612702565b600d60205260009081526040902080546001820154600283015460038401546004850154600586015460068701546007880154600889015460098a0154600a909a01549899979896979596949593949293919290916001600160a01b0316908b565b604080519b8c5260208c019a909a52988a01979097526060890195909552608088019390935260a087019190915260c086015260e08501526101008401526001600160a01b0316610120830152610140820152610160016102ad565b6102a36103d9366004612702565b6109fb565b6102fd6103ec36600461271f565b610a33565b6102a360055481565b6102a3610408366004612702565b610b0c565b6102a361041b366004612702565b610bf3565b6102a37f000000000000000000000000000000000000000000000000000000000000000081565b6102a3610455366004612702565b610c01565b6102a3600a5481565b6102fd610471366004612702565b610c63565b6102fd610484366004612765565b610d08565b6102fd610d17565b6102a361049f3660046126d1565b610d22565b600c546102d2906001600160a01b031681565b6007546102d2906001600160a01b031681565b6104d2610d53565b6040516102ad9190612791565b6102a3600b5481565b6102a360035481565b6102fd6104ff366004612702565b610db5565b6102a360115481565b6102a361051b366004612702565b610e53565b6102fd61052e3660046127d2565b610e9b565b6000546001600160a01b03166102d2565b6102a360025481565b6008546102d2906001600160a01b031681565b6102a360065481565b6102a3610577366004612702565b611053565b6102d261058a3660046126d1565b611075565b6102fd61059d366004612702565b611085565b6009546102d2906001600160a01b031681565b6102fd6105c3366004612702565b61110a565b6102a36105d6366004612702565b6111a8565b6102fd6105e9366004612815565b6111d6565b6104d261122e565b6102a36106043660046126d1565b61128e565b6102a360045481565b6102a36112b5565b6102fd610628366004612702565b611381565b6102fd61141f565b6102fd6106433660046126d1565b611428565b6102d27f000000000000000000000000000000000000000000000000000000000000000081565b6102a360105481565b6104d26106863660046126d1565b6114d4565b600f818154811061069b57600080fd5b6000918252602090912001546001600160a01b0316905081565b6001600160a01b0381166106e45760405162461bcd60e51b81526004016106db90612856565b60405180910390fd5b60006106ef82610e53565b6001600160a01b0383166000908152600d6020526040902060040154909150811580159061071d5750600081115b61075d5760405162461bcd60e51b8152602060048201526011602482015270496e76616c69642055736572204461746160781b60448201526064016106db565b600081610772670de0b6b3a764000085612892565b61077c91906128b1565b9050600b548110156107c95760405162461bcd60e51b815260206004820152601660248201527513505608141493d19255081393d50814915050d2115160521b60448201526064016106db565b6000670de0b6b3a7640000600b54846107e29190612892565b6107ec91906128b1565b90508381111561083e5760405162461bcd60e51b815260206004820152601760248201527f4e6f74206f766572204d6178696d756d2050726f66697400000000000000000060448201526064016106db565b600061084a82866128d3565b6001600160a01b0387166000908152600d602052604081205491925061086f8261128e565b90506000821180156108815750600081115b801561088d5750828110155b6108d05760405162461bcd60e51b8152602060048201526014602482015273536f6d657468696e672057656e742057726f6e6760601b60448201526064016106db565b81600a60008282546108e291906128d3565b909155506108f1905088611653565b600061090061049f85846128d3565b9050600061090d85610d22565b90506109198a83611874565b6109233382611874565b336000908152600d6020526040812060080154900361097f57600f80546001810182556000919091527f8d1108e10bcb7c27dddfc02ed9d693a074039d026cf4ea4240b40f7d581ac8020180546001600160a01b031916331790555b336000908152600d6020526040812060080180548792906109a19084906128ea565b9091555050604080516001600160a01b038c1681523360208201529081018690527fc01d8604e9bbf0ee54438b9286a97dad0c54dc777c5b6542cfa606dda6af81289060600160405180910390a150505050505050505050565b6001600160a01b0381166000908152600d6020526040812060060154610a209061128e565b610a2d9062015180612892565b92915050565b6009546001600160a01b0316610a795760405162461bcd60e51b815260206004820152600b60248201526a2d32b937902d30b83832b960a91b60448201526064016106db565b600954610a919084906001600160a01b0316846119f2565b506009546040516315c188e960e21b81526001600160a01b0385811660048301528681166024830152336044830152606482018490529091169063570623a490608401600060405180830381600087803b158015610aee57600080fd5b505af1158015610b02573d6000803e3d6000fd5b5050505050505050565b6001600160a01b0381166000908152600d60205260408120541580610b4c57506001600160a01b0382166000908152600d60205260409020600701544211155b15610b5957506000919050565b6001600160a01b0382166000908152600d6020526040812060070154610b7f90426128d3565b6001600160a01b0384166000908152600d602052604081206006015491925090610ba99083612892565b6001600160a01b0385166000908152600d60205260409020549091508111610bd15780610beb565b6001600160a01b0384166000908152600d60205260409020545b949350505050565b6000610a2d61060483610b0c565b600080610c0d83610e53565b6001600160a01b0384166000908152600d6020526040902060040154909150811580610c37575080155b15610c46575060009392505050565b80610c59670de0b6b3a764000084612892565b610beb91906128b1565b6000546001600160a01b03163314610c8d5760405162461bcd60e51b81526004016106db90612902565b6001600160a01b038116610cb35760405162461bcd60e51b81526004016106db90612856565b600980546001600160a01b0319166001600160a01b0383169081179091556040519081527fe1e732dbbc8e3554486963da7b8477bf9f5066e9172819ed0397db8535ac527e906020015b60405180910390a150565b610d13338383611bc3565b5050565b610d2033611eee565b565b6000806103e860065484610d369190612892565b610d4091906128b1565b9050610d4c81846128d3565b9392505050565b6060600f805480602002602001604051908101604052809291908181526020018280548015610dab57602002820191906000526020600020905b81546001600160a01b03168152600190910190602001808311610d8d575b5050505050905090565b6000546001600160a01b03163314610ddf5760405162461bcd60e51b81526004016106db90612902565b6001600160a01b038116610e055760405162461bcd60e51b81526004016106db90612856565b600880546001600160a01b0319166001600160a01b0383169081179091556040519081527fbef2c125b6392cbec1a04028518f8191a6ffbd6c9e2fa452a8419b52523e92bd90602001610cfd565b6001600160a01b0381166000908152600d6020526040812060048101546005909101548290610e819061128e565b9050808210610e91576000610beb565b610beb82826128d3565b6000546001600160a01b03163314610ec55760405162461bcd60e51b81526004016106db90612902565b6103e8828486610ed5898b6128ea565b610edf91906128ea565b610ee991906128ea565b610ef391906128ea565b14610f2f5760405162461bcd60e51b815260206004820152600c60248201526b496e76616c6964204665657360a01b60448201526064016106db565b600086118015610f3f5750600085115b8015610f4b5750600083115b8015610f575750600082115b610f915760405162461bcd60e51b815260206004820152600b60248201526a5a65726f20436865636b7360a81b60448201526064016106db565b60fa811115610fd75760405162461bcd60e51b8152602060048201526012602482015271086d8c2d2da408ccaca40a8dede4090d2ced60731b60448201526064016106db565b6001869055600285905560038490556004839055600582905560068190556040805187815260208101879052908101859052606081018490526080810183905260a081018290527f8241ce23be5510917dc83396d1123ec1786ba7f4b9f956803522acb5f75050389060c00160405180910390a1505050505050565b6001600160a01b0381166000908152600d6020526040812054610a2d9061128e565b600e818154811061069b57600080fd5b6000546001600160a01b031633146110af5760405162461bcd60e51b81526004016106db90612902565b600080546040516001600160a01b03808516939216917f342827c97908e5e2f71151c08502a66d44b6f758e3ac2f1de95f02eb95f0a73591a3600080546001600160a01b0319166001600160a01b0392909216919091179055565b6000546001600160a01b031633146111345760405162461bcd60e51b81526004016106db90612902565b6001600160a01b03811661115a5760405162461bcd60e51b81526004016106db90612856565b600c80546001600160a01b0319166001600160a01b0383169081179091556040519081527fcb7ef3e545f5cdb893f5c568ba710fe08f336375a2d9fd66e161033f8fc09ef390602001610cfd565b6001600160a01b0381166000908152600d6020526040812060028101546003909101548290610e819061128e565b6009546001600160a01b0316331461121e5760405162461bcd60e51b815260206004820152600b60248201526a27b7363c902d30b83832b960a91b60448201526064016106db565b611229838383611bc3565b505050565b6060600e805480602002602001604051908101604052809291908181526020018280548015610dab576020028201919060005260206000209081546001600160a01b03168152600190910190602001808311610d8d575050505050905090565b6000670de0b6b3a76400006112a16112b5565b6112ab9084612892565b610a2d91906128b1565b600080600a546000146112ca57600a546112cd565b60015b6040516370a0823160e01b81523060048201529091506000906001600160a01b037f000000000000000000000000000000000000000000000000000000000000000016906370a0823190602401602060405180830381865afa158015611337573d6000803e3d6000fd5b505050506040513d601f19601f8201168201806040525081019061135b919061292f565b905081611370670de0b6b3a764000083612892565b61137a91906128b1565b9250505090565b6000546001600160a01b031633146113ab5760405162461bcd60e51b81526004016106db90612902565b6001600160a01b0381166113d15760405162461bcd60e51b81526004016106db90612856565b600780546001600160a01b0319166001600160a01b0383169081179091556040519081527fcb7ef3e545f5cdb893f5c568ba710fe08f336375a2d9fd66e161033f8fc09ef390602001610cfd565b610d203361203f565b6000546001600160a01b031633146114525760405162461bcd60e51b81526004016106db90612902565b670de0b6b3a764000081101561149f5760405162461bcd60e51b81526020600482015260126024820152714d61782050726f66697420546f6f204c6f7760701b60448201526064016106db565b600b8190556040518181527f348b802428200d5891252baa398e88f928ab82a2268416ac2702e6738154e62290602001610cfd565b600e54600b546060919060009081906103e8906114f2908790612892565b6114fc91906128b1565b905060005b83811015611555578161153a600e838154811061152057611520612948565b6000918252602090912001546001600160a01b0316610c01565b1061154d57826115498161295e565b9350505b600101611501565b5060008267ffffffffffffffff81111561157157611571612977565b60405190808252806020026020018201604052801561159a578160200160208202803683370190505b509050826000036115ae5795945050505050565b6000805b8581101561164757836115d1600e838154811061152057611520612948565b1061163f57600e81815481106115e9576115e9612948565b9060005260206000200160009054906101000a90046001600160a01b031683838151811061161957611619612948565b6001600160a01b03909216602092830291909101909101528161163b8161295e565b9250505b6001016115b2565b50909695505050505050565b6001600160a01b0381166000818152600d6020526040902060010154600e8054909190811061168457611684612948565b6000918252602090912001546001600160a01b0316146116d95760405162461bcd60e51b815260206004820152601060248201526f155cd95c88139bdd08141c995cd95b9d60821b60448201526064016106db565b6001600160a01b0381166000908152600d602081905260408220600190810154600e8054919492909161170c91906128d3565b8154811061171c5761171c612948565b60009182526020808320909101546001600160a01b031683528201929092526040019020600190810191909155600e80549091611758916128d3565b8154811061176857611768612948565b60009182526020808320909101546001600160a01b038481168452600d909252604090922060010154600e805492909316929181106117a9576117a9612948565b9060005260206000200160006101000a8154816001600160a01b0302191690836001600160a01b03160217905550600e8054806117e8576117e861298d565b60008281526020808220830160001990810180546001600160a01b031990811690915593019093556001600160a01b03939093168352600d909152604082208281556001810183905560028101839055600381018390556004810183905560058101839055600681018390556007810183905560088101839055600981018054909216909155600a0155565b6040516370a0823160e01b81523060048201526000907f00000000000000000000000000000000000000000000000000000000000000006001600160a01b0316906370a0823190602401602060405180830381865afa1580156118db573d6000803e3d6000fd5b505050506040513d601f19601f820116820180604052508101906118ff919061292f565b90508082111561190d578091505b81156112295760405163a9059cbb60e01b81526001600160a01b038481166004830152602482018490527f0000000000000000000000000000000000000000000000000000000000000000169063a9059cbb906044016020604051808303816000875af1158015611982573d6000803e3d6000fd5b505050506040513d601f19601f820116820180604052508101906119a691906129a3565b6112295760405162461bcd60e51b815260206004820152601960248201527f4661696c757265204f6e20546f6b656e205472616e736665720000000000000060448201526064016106db565b6040516370a0823160e01b81526001600160a01b03838116600483015260009182918616906370a0823190602401602060405180830381865afa158015611a3d573d6000803e3d6000fd5b505050506040513d601f19601f82011682018060405250810190611a61919061292f565b6040516323b872dd60e01b81523360048201526001600160a01b038681166024830152604482018690529192506000918716906323b872dd906064016020604051808303816000875af1158015611abc573d6000803e3d6000fd5b505050506040513d601f19601f82011682018060405250810190611ae091906129a3565b6040516370a0823160e01b81526001600160a01b0387811660048301529192506000918491908916906370a0823190602401602060405180830381865afa158015611b2f573d6000803e3d6000fd5b505050506040513d601f19601f82011682018060405250810190611b53919061292f565b611b5d91906128d3565b9050818015611b6c5750600081115b8015611b785750848111155b611bb95760405162461bcd60e51b81526020600482015260126024820152714572726f72205472616e7366657246726f6d60701b60448201526064016106db565b9695505050505050565b6001600160a01b03821615801590611bdb5750600081115b611c155760405162461bcd60e51b815260206004820152600b60248201526a16995c9bc8105b5bdd5b9d60aa1b60448201526064016106db565b6000611c2084610b0c565b1115611c2f57611c2f8361203f565b6040516370a0823160e01b81523060048201526000907f00000000000000000000000000000000000000000000000000000000000000006001600160a01b0316906370a0823190602401602060405180830381865afa158015611c96573d6000803e3d6000fd5b505050506040513d601f19601f82011682018060405250810190611cba919061292f565b6001600160a01b0385166000908152600d602052604081205491925003611d4657600e80546001600160a01b0386166000818152600d602052604081206001808201949094554260079091015583549283018455929092527fbb7b4a454dc3493923482f07822329ed19e8244eff582cc204f8554c3620c3fd0180546001600160a01b03191690911790555b6000611d737f000000000000000000000000000000000000000000000000000000000000000030856119f2565b90508060106000828254611d8791906128ea565b90915550506001546000906103e890611da09084612892565b611daa91906128b1565b905060006103e860025484611dbf9190612892565b611dc991906128b1565b905060006103e860045485611dde9190612892565b611de891906128b1565b905060006103e860055486611dfd9190612892565b611e0791906128b1565b905060008183611e1786886128ea565b611e2191906128ea565b611e2b91906128ea565b611e3590876128d3565b9050611e41828461211b565b600854604051636d705ebb60e01b81526001600160a01b038c811660048301526024820189905290911690636d705ebb90604401600060405180830381600087803b158015611e8f57600080fd5b505af1158015611ea3573d6000803e3d6000fd5b50505050611eb28a8a8361228c565b611ebc90856128ea565b93508360126000828254611ed091906128ea565b90915550611ee290508a868987612394565b50505050505050505050565b6000611ef982610b0c565b905080600003611f07575050565b6001600160a01b0382166000908152600d6020526040902054811115611f4257506001600160a01b0381166000908152600d60205260409020545b6000611f4d8261128e565b905081600a6000828254611f6191906128d3565b90915550506001600160a01b0383166000908152600d60205260409020548210611f9357611f8e83611653565b611fe0565b6001600160a01b0383166000908152600d602052604081208054849290611fbb9084906128d3565b90915550506001600160a01b0383166000908152600d60205260409020426007909101555b6000611feb82610d22565b9050611ff78482611874565b604080516001600160a01b0386168152602081018390527f47cee97cb7acd717b3c0aa1435d004cd5b3c8c57d70dbceb4e4458bbd60e39d4910160405180910390a150505050565b600061204a82610b0c565b905060006120578261128e565b9050811580612064575080155b1561206e57505050565b6001600160a01b0383166000908152600d60205260408120426007820155600401805483929061209f9084906128ea565b90915550506001600160a01b0383166000908152600d6020526040812060050180548492906120cf9084906128ea565b9091555050604080516001600160a01b0385168152602081018390527f169f1815ebdea059aac3bb00ec9a9594c7a5ffcb64a17e8392b5d84909a14556910160405180910390a1505050565b60085460405163095ea7b360e01b81526001600160a01b039182166004820152602481018490527f00000000000000000000000000000000000000000000000000000000000000009091169063095ea7b3906044016020604051808303816000875af115801561218f573d6000803e3d6000fd5b505050506040513d601f19601f820116820180604052508101906121b391906129a3565b506008546040516311f9fbc960e21b81526001600160a01b037f00000000000000000000000000000000000000000000000000000000000000008116600483015260248201859052909116906347e7ef2490604401600060405180830381600087803b15801561222257600080fd5b505af1158015612236573d6000803e3d6000fd5b50505050600060028261224991906128b1565b9050600061225782846128d3565b600754909150612270906001600160a01b031682611874565b600c54612286906001600160a01b031683611874565b50505050565b6001600160a01b038381166000908152600d60205260408120600901549091166122fb57836001600160a01b0316836001600160a01b0316146122fb576001600160a01b038481166000908152600d6020526040902060090180546001600160a01b0319169185169190911790555b6001600160a01b038085166000908152600d60205260409020600901541680158015906123285750600083115b1561238b576123378184611874565b6001600160a01b0381166000908152600d60205260408120600a0180548592906123629084906128ea565b92505081905550826011600082825461237b91906128ea565b9091555060009250610d4c915050565b50909392505050565b6001600160a01b0384166000908152600d6020526040812060020180548592906123bf9084906128ea565b90915550506001600160a01b0384166000908152600d6020526040812060040180548592906123ef9084906128ea565b9091555050600a541580612401575081155b15612556576001600160a01b0384166000908152600d60205260408120805485929061242e9084906128ea565b9091555061245e90507f0000000000000000000000000000000000000000000000000000000000000000846128b1565b6001600160a01b0385166000908152600d6020526040812060060180549091906124899084906128ea565b90915550506001600160a01b0384166000908152600d6020526040812060030180548592906124b99084906128ea565b90915550506001600160a01b0384166000908152600d6020526040812060050180548592906124e99084906128ea565b9250508190555082600a600082825461250291906128ea565b9091555050604080516001600160a01b0386168152602081018590529081018490527f90890809c654f11d6e72a28fa60149770a0d11ec6c92319d6ceb2bb0a4ea1a159060600160405180910390a1612286565b600061256282846128ea565b84600a546125709190612892565b61257a91906128b1565b6001600160a01b0386166000908152600d60205260408120805492935083929091906125a79084906128ea565b90915550506001600160a01b0385166000908152600d6020526040812060030180548392906125d79084906128ea565b90915550506001600160a01b0385166000908152600d6020526040812060050180548392906126079084906128ea565b9091555061263790507f0000000000000000000000000000000000000000000000000000000000000000826128b1565b6001600160a01b0386166000908152600d6020526040812060060180549091906126629084906128ea565b9250508190555080600a600082825461267b91906128ea565b9091555050604080516001600160a01b0387168152602081018690529081018290527f90890809c654f11d6e72a28fa60149770a0d11ec6c92319d6ceb2bb0a4ea1a159060600160405180910390a15050505050565b6000602082840312156126e357600080fd5b5035919050565b6001600160a01b03811681146126ff57600080fd5b50565b60006020828403121561271457600080fd5b8135610d4c816126ea565b6000806000806080858703121561273557600080fd5b8435612740816126ea565b93506020850135612750816126ea565b93969395505050506040820135916060013590565b6000806040838503121561277857600080fd5b8235612783816126ea565b946020939093013593505050565b6020808252825182820181905260009190848201906040850190845b818110156116475783516001600160a01b0316835292840192918401916001016127ad565b60008060008060008060c087890312156127eb57600080fd5b505084359660208601359650604086013595606081013595506080810135945060a0013592509050565b60008060006060848603121561282a57600080fd5b8335612835816126ea565b92506020840135612845816126ea565b929592945050506040919091013590565b6020808252600c908201526b5a65726f204164647265737360a01b604082015260600190565b634e487b7160e01b600052601160045260246000fd5b60008160001904831182151516156128ac576128ac61287c565b500290565b6000826128ce57634e487b7160e01b600052601260045260246000fd5b500490565b6000828210156128e5576128e561287c565b500390565b600082198211156128fd576128fd61287c565b500190565b60208082526013908201527221b0b63632b91034b9903737ba1037bbb732b960691b604082015260600190565b60006020828403121561294157600080fd5b5051919050565b634e487b7160e01b600052603260045260246000fd5b6000600182016129705761297061287c565b5060010190565b634e487b7160e01b600052604160045260246000fd5b634e487b7160e01b600052603160045260246000fd5b6000602082840312156129b557600080fd5b81518015158114610d4c57600080fdfea264697066735822122024bc0c4dcb83308039059f715e4906a5657b0cfca95097e7212897a42cca727c64736f6c634300080e0033",
  "linkReferences": {},
  "deployedLinkReferences": {}
}