{
  "_format": "hh-sol-artifact-1",
  "contractName": "Zapper",
  "sourceName": "contracts/Zapper.sol",
  "abi": [
    {
      "inputs": [
        {
          "internalType": "address",
          "name": "miner_",
          "type": "address"
        },
        {
          "internalType": "address",
          "name": "router_",
          "type": "address"
        }
      ],
      "stateMutability": "nonpayable",
      "type": "constructor"
    },
    {
      "inputs": [],
      "name": "LP",
      "outputs": [
        {
          "internalType": "contract IERC20",
          "name": "",
          "type": "address"
        }
      ],
      "stateMutability": "view",
      "type": "function"
    },
    {
      "inputs": [],
      "name": "Miner",
      "outputs": [
        {
          "internalType": "address",
          "name": "",
          "type": "address"
        }
      ],
      "stateMutability": "view",
      "type": "function"
    },
    {
      "inputs": [],
      "name": "router",
      "outputs": [
        {
          "internalType": "contract IUniswapV2Router02",
          "name": "",
          "type": "address"
        }
      ],
      "stateMutability": "view",
      "type": "function"
    },
    {
      "inputs": [],
      "name": "token0",
      "outputs": [
        {
          "internalType": "address",
          "name": "",
          "type": "address"
        }
      ],
      "stateMutability": "view",
      "type": "function"
    },
    {
      "inputs": [],
      "name": "token1",
      "outputs": [
        {
          "internalType": "address",
          "name": "",
          "type": "address"
        }
      ],
      "stateMutability": "view",
      "type": "function"
    },
    {
      "inputs": [
        {
          "internalType": "contract IERC20",
          "name": "token_",
          "type": "address"
        },
        {
          "internalType": "address",
          "name": "ref",
          "type": "address"
        },
        {
          "internalType": "address",
          "name": "sender",
          "type": "address"
        },
        {
          "internalType": "uint256",
          "name": "minOut",
          "type": "uint256"
        }
      ],
      "name": "zap",
      "outputs": [],
      "stateMutability": "nonpayable",
      "type": "function"
    }
  ],
  "bytecode": "0x6101206040523480156200001257600080fd5b506040516200129e3803806200129e83398101604081905262000035916200029d565b6001600160a01b038216608081905260408051637e062a3560e11b8152905163fc0c546a916004808201926020929091908290030181865afa15801562000080573d6000803e3d6000fd5b505050506040513d601f19601f82011682018060405250810190620000a69190620002dc565b6001600160a01b031660a0816001600160a01b031681525050816001600160a01b031663fc0c546a6040518163ffffffff1660e01b8152600401602060405180830381865afa158015620000fe573d6000803e3d6000fd5b505050506040513d601f19601f82011682018060405250810190620001249190620002dc565b6001600160a01b0316630dfe16816040518163ffffffff1660e01b8152600401602060405180830381865afa15801562000162573d6000803e3d6000fd5b505050506040513d601f19601f82011682018060405250810190620001889190620002dc565b6001600160a01b031660e0816001600160a01b031681525050816001600160a01b031663fc0c546a6040518163ffffffff1660e01b8152600401602060405180830381865afa158015620001e0573d6000803e3d6000fd5b505050506040513d601f19601f82011682018060405250810190620002069190620002dc565b6001600160a01b031663d21220a76040518163ffffffff1660e01b8152600401602060405180830381865afa15801562000244573d6000803e3d6000fd5b505050506040513d601f19601f820116820180604052508101906200026a9190620002dc565b6001600160a01b03908116610100521660c0525062000303565b6001600160a01b03811681146200029a57600080fd5b50565b60008060408385031215620002b157600080fd5b8251620002be8162000284565b6020840151909250620002d18162000284565b809150509250929050565b600060208284031215620002ef57600080fd5b8151620002fc8162000284565b9392505050565b60805160a05160c05160e05161010051610edb620003c3600039600081816101120152818161020a0152818161063c015281816106ca015261096401526000818160af015281816101cf015281816104a70152818161053601528181610905015261093e0152600081816101390152818161088401528181610a0a01528181610b8f0152610c1a01526000818160eb015281816102a00152610398015260008181606c015281816101660152818161036901526104340152610edb6000f3fe608060405234801561001057600080fd5b50600436106100625760003560e01c806302abb4c5146100675780630dfe1681146100aa578063570623a4146100d1578063b6fccf8a146100e6578063d21220a71461010d578063f887ea4014610134575b600080fd5b61008e7f000000000000000000000000000000000000000000000000000000000000000081565b6040516001600160a01b03909116815260200160405180910390f35b61008e7f000000000000000000000000000000000000000000000000000000000000000081565b6100e46100df366004610d15565b61015b565b005b61008e7f000000000000000000000000000000000000000000000000000000000000000081565b61008e7f000000000000000000000000000000000000000000000000000000000000000081565b61008e7f000000000000000000000000000000000000000000000000000000000000000081565b336001600160a01b037f000000000000000000000000000000000000000000000000000000000000000016146101cd5760405162461bcd60e51b815260206004820152601260248201527104f6e6c79204d696e65722043616e205a61760741b60448201526064015b60405180910390fd5b7f00000000000000000000000000000000000000000000000000000000000000006001600160a01b0316846001600160a01b0316148061023e57507f00000000000000000000000000000000000000000000000000000000000000006001600160a01b0316846001600160a01b0316145b61027f5760405162461bcd60e51b815260206004820152601260248201527104e6f7420416c6c6f77656420546f205a61760741b60448201526064016101c4565b610288846107bf565b6040516370a0823160e01b81523060048201526000907f00000000000000000000000000000000000000000000000000000000000000006001600160a01b0316906370a0823190602401602060405180830381865afa1580156102ef573d6000803e3d6000fd5b505050506040513d601f19601f820116820180604052508101906103139190610d66565b9050818110156103525760405162461bcd60e51b815260206004820152600a602482015269135a5b8813140813dd5d60b21b60448201526064016101c4565b60405163095ea7b360e01b81526001600160a01b037f000000000000000000000000000000000000000000000000000000000000000081166004830152602482018390527f0000000000000000000000000000000000000000000000000000000000000000169063095ea7b3906044016020604051808303816000875af11580156103e1573d6000803e3d6000fd5b505050506040513d601f19601f820116820180604052508101906104059190610d7f565b5060405163b3db428b60e01b81526001600160a01b0384811660048301528581166024830152604482018390527f0000000000000000000000000000000000000000000000000000000000000000169063b3db428b90606401600060405180830381600087803b15801561047857600080fd5b505af115801561048c573d6000803e3d6000fd5b50506040516370a0823160e01b8152306004820152600092507f00000000000000000000000000000000000000000000000000000000000000006001600160a01b031691506370a0823190602401602060405180830381865afa1580156104f7573d6000803e3d6000fd5b505050506040513d601f19601f8201168201806040525081019061051b9190610d66565b1115610624576040516370a0823160e01b81523060048201527f00000000000000000000000000000000000000000000000000000000000000006001600160a01b03169063a9059cbb90859083906370a0823190602401602060405180830381865afa15801561058f573d6000803e3d6000fd5b505050506040513d601f19601f820116820180604052508101906105b39190610d66565b6040516001600160e01b031960e085901b1681526001600160a01b03909216600483015260248201526044016020604051808303816000875af11580156105fe573d6000803e3d6000fd5b505050506040513d601f19601f820116820180604052508101906106229190610d7f565b505b6040516370a0823160e01b81523060048201526000907f00000000000000000000000000000000000000000000000000000000000000006001600160a01b0316906370a0823190602401602060405180830381865afa15801561068b573d6000803e3d6000fd5b505050506040513d601f19601f820116820180604052508101906106af9190610d66565b11156107b8576040516370a0823160e01b81523060048201527f00000000000000000000000000000000000000000000000000000000000000006001600160a01b03169063a9059cbb90859083906370a0823190602401602060405180830381865afa158015610723573d6000803e3d6000fd5b505050506040513d601f19601f820116820180604052508101906107479190610d66565b6040516001600160e01b031960e085901b1681526001600160a01b03909216600483015260248201526044016020604051808303816000875af1158015610792573d6000803e3d6000fd5b505050506040513d601f19601f820116820180604052508101906107b69190610d7f565b505b5050505050565b6040516370a0823160e01b81523060048201526000906001600160a01b038316906370a0823190602401602060405180830381865afa158015610806573d6000803e3d6000fd5b505050506040513d601f19601f8201168201806040525081019061082a9190610d66565b90506001811161086d5760405162461bcd60e51b815260206004820152600e60248201526d416d6f756e7420546f6f204c6f7760901b60448201526064016101c4565b60405163095ea7b360e01b81526001600160a01b037f0000000000000000000000000000000000000000000000000000000000000000811660048301526024820183905283169063095ea7b3906044016020604051808303816000875af11580156108dc573d6000803e3d6000fd5b505050506040513d601f19601f820116820180604052508101906109009190610d7f565b5060007f00000000000000000000000000000000000000000000000000000000000000006001600160a01b0316836001600160a01b031614610962577f0000000000000000000000000000000000000000000000000000000000000000610984565b7f00000000000000000000000000000000000000000000000000000000000000005b604080516002808252606082018352929350600092909160208301908036833701905050905083816000815181106109be576109be610da8565b60200260200101906001600160a01b031690816001600160a01b03168152505081816001815181106109f2576109f2610da8565b6001600160a01b0392831660209182029290920101527f000000000000000000000000000000000000000000000000000000000000000016635c11d795610a3a600286610dbe565b60008430610a4942600a610de0565b6040518663ffffffff1660e01b8152600401610a69959493929190610e06565b600060405180830381600087803b158015610a8357600080fd5b505af1158015610a97573d6000803e3d6000fd5b50506040516370a0823160e01b815230600482015260609350600092506001600160a01b03851691506370a0823190602401602060405180830381865afa158015610ae6573d6000803e3d6000fd5b505050506040513d601f19601f82011682018060405250810190610b0a9190610d66565b6040516370a0823160e01b81523060048201529091506000906001600160a01b038716906370a0823190602401602060405180830381865afa158015610b54573d6000803e3d6000fd5b505050506040513d601f19601f82011682018060405250810190610b789190610d66565b60405163095ea7b360e01b81526001600160a01b037f000000000000000000000000000000000000000000000000000000000000000081166004830152602482018590529192509085169063095ea7b3906044016020604051808303816000875af1158015610beb573d6000803e3d6000fd5b505050506040513d601f19601f82011682018060405250810190610c0f9190610d7f565b506001600160a01b037f00000000000000000000000000000000000000000000000000000000000000001663e8e337008786848660008030610c5242600a610de0565b60405160e08a901b6001600160e01b03191681526001600160a01b039889166004820152968816602488015260448701959095526064860193909352608485019190915260a484015290921660c482015260e4810191909152610104016060604051808303816000875af1158015610cce573d6000803e3d6000fd5b505050506040513d601f19601f82011682018060405250810190610cf29190610e77565b505050505050505050565b6001600160a01b0381168114610d1257600080fd5b50565b60008060008060808587031215610d2b57600080fd5b8435610d3681610cfd565b93506020850135610d4681610cfd565b92506040850135610d5681610cfd565b9396929550929360600135925050565b600060208284031215610d7857600080fd5b5051919050565b600060208284031215610d9157600080fd5b81518015158114610da157600080fd5b9392505050565b634e487b7160e01b600052603260045260246000fd5b600082610ddb57634e487b7160e01b600052601260045260246000fd5b500490565b60008219821115610e0157634e487b7160e01b600052601160045260246000fd5b500190565b600060a082018783526020878185015260a0604085015281875180845260c086019150828901935060005b81811015610e565784516001600160a01b031683529383019391830191600101610e31565b50506001600160a01b03969096166060850152505050608001529392505050565b600080600060608486031215610e8c57600080fd5b835192506020840151915060408401519050925092509256fea2646970667358221220466b5dee458f1be39405b0edc8d6e7b4150394d62cc81b4925f382295e73d83d64736f6c634300080e0033",
  "linkReferences": {},
  "deployedLinkReferences": {}
}