{
  "_format": "hh-sol-artifact-1",
  "contractName": "LPEstimator",
  "sourceName": "contracts/LPTokenEstimatorTwo.sol",
  "abi": [
    {
      "inputs": [
        {
          "internalType": "address",
          "name": "router_",
          "type": "address"
        },
        {
          "internalType": "address",
          "name": "LPToken",
          "type": "address"
        }
      ],
      "stateMutability": "nonpayable",
      "type": "constructor"
    },
    {
      "inputs": [],
      "name": "LP",
      "outputs": [
        {
          "internalType": "contract IERC20",
          "name": "",
          "type": "address"
        }
      ],
      "stateMutability": "view",
      "type": "function"
    },
    {
      "inputs": [],
      "name": "router",
      "outputs": [
        {
          "internalType": "contract IUniswapV2Router02",
          "name": "",
          "type": "address"
        }
      ],
      "stateMutability": "view",
      "type": "function"
    },
    {
      "inputs": [],
      "name": "token0",
      "outputs": [
        {
          "internalType": "address",
          "name": "",
          "type": "address"
        }
      ],
      "stateMutability": "view",
      "type": "function"
    },
    {
      "inputs": [],
      "name": "token1",
      "outputs": [
        {
          "internalType": "address",
          "name": "",
          "type": "address"
        }
      ],
      "stateMutability": "view",
      "type": "function"
    },
    {
      "inputs": [
        {
          "internalType": "contract IERC20",
          "name": "token_",
          "type": "address"
        }
      ],
      "name": "zap",
      "outputs": [],
      "stateMutability": "nonpayable",
      "type": "function"
    }
  ],
  "bytecode": "0x61010060405234801561001157600080fd5b50604051610db2380380610db283398101604081905261003091610150565b6001600160a01b038116608081905260408051630dfe168160e01b81529051630dfe1681916004808201926020929091908290030181865afa15801561007a573d6000803e3d6000fd5b505050506040513d601f19601f8201168201806040525081019061009e9190610183565b6001600160a01b031660c0816001600160a01b031681525050806001600160a01b031663d21220a76040518163ffffffff1660e01b8152600401602060405180830381865afa1580156100f5573d6000803e3d6000fd5b505050506040513d601f19601f820116820180604052508101906101199190610183565b6001600160a01b0390811660e0529190911660a052506101a5565b80516001600160a01b038116811461014b57600080fd5b919050565b6000806040838503121561016357600080fd5b61016c83610134565b915061017a60208401610134565b90509250929050565b60006020828403121561019557600080fd5b61019e82610134565b9392505050565b60805160a05160c05160e051610b9861021a6000396000818160e001526102d301526000818160610152818161027401526102ad015260008181610107015281816101f301528181610379015281816104fe015261061601526000818160b90152818161059701526107090152610b986000f3fe608060405234801561001057600080fd5b50600436106100575760003560e01c80630dfe16811461005c578063510a33831461009f578063b6fccf8a146100b4578063d21220a7146100db578063f887ea4014610102575b600080fd5b6100837f000000000000000000000000000000000000000000000000000000000000000081565b6040516001600160a01b03909116815260200160405180910390f35b6100b26100ad366004610913565b610129565b005b6100837f000000000000000000000000000000000000000000000000000000000000000081565b6100837f000000000000000000000000000000000000000000000000000000000000000081565b6100837f000000000000000000000000000000000000000000000000000000000000000081565b6040516370a0823160e01b81523060048201526000906001600160a01b038316906370a0823190602401602060405180830381865afa158015610170573d6000803e3d6000fd5b505050506040513d601f19601f820116820180604052508101906101949190610943565b9050600181116101dc5760405162461bcd60e51b815260206004820152600e60248201526d416d6f756e7420546f6f204c6f7760901b60448201526064015b60405180910390fd5b60405163095ea7b360e01b81526001600160a01b037f0000000000000000000000000000000000000000000000000000000000000000811660048301526024820183905283169063095ea7b3906044016020604051808303816000875af115801561024b573d6000803e3d6000fd5b505050506040513d601f19601f8201168201806040525081019061026f919061095c565b5060007f00000000000000000000000000000000000000000000000000000000000000006001600160a01b0316836001600160a01b0316146102d1577f00000000000000000000000000000000000000000000000000000000000000006102f3565b7f00000000000000000000000000000000000000000000000000000000000000005b6040805160028082526060820183529293506000929091602083019080368337019050509050838160008151811061032d5761032d610994565b60200260200101906001600160a01b031690816001600160a01b031681525050818160018151811061036157610361610994565b6001600160a01b0392831660209182029290920101527f000000000000000000000000000000000000000000000000000000000000000016635c11d7956103a96002866109c0565b600084306103b842600a6109e2565b6040518663ffffffff1660e01b81526004016103d89594939291906109fa565b600060405180830381600087803b1580156103f257600080fd5b505af1158015610406573d6000803e3d6000fd5b50506040516370a0823160e01b815230600482015260609350600092506001600160a01b03851691506370a0823190602401602060405180830381865afa158015610455573d6000803e3d6000fd5b505050506040513d601f19601f820116820180604052508101906104799190610943565b6040516370a0823160e01b81523060048201529091506000906001600160a01b038716906370a0823190602401602060405180830381865afa1580156104c3573d6000803e3d6000fd5b505050506040513d601f19601f820116820180604052508101906104e79190610943565b60405163095ea7b360e01b81526001600160a01b037f000000000000000000000000000000000000000000000000000000000000000081166004830152602482018590529192509085169063095ea7b3906044016020604051808303816000875af115801561055a573d6000803e3d6000fd5b505050506040513d601f19601f8201168201806040525081019061057e919061095c565b506040516370a0823160e01b81523060048201526000907f00000000000000000000000000000000000000000000000000000000000000006001600160a01b0316906370a0823190602401602060405180830381865afa1580156105e6573d6000803e3d6000fd5b505050506040513d601f19601f8201168201806040525081019061060a9190610943565b90506001600160a01b037f00000000000000000000000000000000000000000000000000000000000000001663e8e33700888785876000803061064e42600a6109e2565b60405160e08a901b6001600160e01b03191681526001600160a01b039889166004820152968816602488015260448701959095526064860193909352608485019190915260a484015290921660c482015260e4810191909152610104016060604051808303816000875af11580156106ca573d6000803e3d6000fd5b505050506040513d601f19601f820116820180604052508101906106ee9190610a6b565b50506040516370a0823160e01b8152306004820152600091507f00000000000000000000000000000000000000000000000000000000000000006001600160a01b0316906370a0823190602401602060405180830381865afa158015610758573d6000803e3d6000fd5b505050506040513d601f19601f8201168201806040525081019061077c9190610943565b9050600061078a8383610a99565b9050806000036107c05760405162461bcd60e51b81526020600482015260016024820152600360fc1b60448201526064016101d3565b60006107cb826107e7565b90508060405162461bcd60e51b81526004016101d39190610ab0565b60608160000361080e5750506040805180820190915260018152600360fc1b602082015290565b8160005b8115610838578061082281610b05565b91506108319050600a836109c0565b9150610812565b60008167ffffffffffffffff8111156108535761085361097e565b6040519080825280601f01601f19166020018201604052801561087d576020820181803683370190505b509050815b851561090a57610893600182610a99565b905060006108a2600a886109c0565b6108ad90600a610b1e565b6108b79088610a99565b6108c2906030610b3d565b905060008160f81b9050808484815181106108df576108df610994565b60200101906001600160f81b031916908160001a905350610901600a896109c0565b97505050610882565b50949350505050565b60006020828403121561092557600080fd5b81356001600160a01b038116811461093c57600080fd5b9392505050565b60006020828403121561095557600080fd5b5051919050565b60006020828403121561096e57600080fd5b8151801515811461093c57600080fd5b634e487b7160e01b600052604160045260246000fd5b634e487b7160e01b600052603260045260246000fd5b634e487b7160e01b600052601160045260246000fd5b6000826109dd57634e487b7160e01b600052601260045260246000fd5b500490565b600082198211156109f5576109f56109aa565b500190565b600060a082018783526020878185015260a0604085015281875180845260c086019150828901935060005b81811015610a4a5784516001600160a01b031683529383019391830191600101610a25565b50506001600160a01b03969096166060850152505050608001529392505050565b600080600060608486031215610a8057600080fd5b8351925060208401519150604084015190509250925092565b600082821015610aab57610aab6109aa565b500390565b600060208083528351808285015260005b81811015610add57858101830151858201604001528201610ac1565b81811115610aef576000604083870101525b50601f01601f1916929092016040019392505050565b600060018201610b1757610b176109aa565b5060010190565b6000816000190483118215151615610b3857610b386109aa565b500290565b600060ff821660ff84168060ff03821115610b5a57610b5a6109aa565b01939250505056fea2646970667358221220062e3a7891fc65423fc933e4adf2317dc2b1675b5ef70fdc27a139e789c1617464736f6c634300080e0033",
  "linkReferences": {},
  "deployedLinkReferences": {}
}