{
  "_format": "hh-sol-artifact-1",
  "contractName": "LPTokenEstimator",
  "sourceName": "contracts/LPTokenEstimator.sol",
  "abi": [
    {
      "inputs": [
        {
          "internalType": "address",
          "name": "dex",
          "type": "address"
        },
        {
          "internalType": "address",
          "name": "token0",
          "type": "address"
        },
        {
          "internalType": "address",
          "name": "token1",
          "type": "address"
        },
        {
          "internalType": "uint256",
          "name": "amountToken0",
          "type": "uint256"
        }
      ],
      "name": "estimateLPOut",
      "outputs": [
        {
          "internalType": "uint256",
          "name": "",
          "type": "uint256"
        }
      ],
      "stateMutability": "view",
      "type": "function"
    }
  ],
  "bytecode": "0x608060405234801561001057600080fd5b5061065e806100206000396000f3fe608060405234801561001057600080fd5b506004361061002b5760003560e01c8063a3c229fd14610030575b600080fd5b61004361003e366004610514565b610055565b60405190815260200160405180910390f35b6000808590506000816001600160a01b031663c45a01556040518163ffffffff1660e01b8152600401602060405180830381865afa15801561009b573d6000803e3d6000fd5b505050506040513d601f19601f820116820180604052508101906100bf9190610565565b60405163e6a4390560e01b81526001600160a01b0388811660048301528781166024830152919091169063e6a4390590604401602060405180830381865afa15801561010f573d6000803e3d6000fd5b505050506040513d601f19601f820116820180604052508101906101339190610565565b90506001600160a01b03811661014e576000925050506104f4565b6000816001600160a01b0316630dfe16816040518163ffffffff1660e01b8152600401602060405180830381865afa15801561018e573d6000803e3d6000fd5b505050506040513d601f19601f820116820180604052508101906101b29190610565565b90506001600160a01b038082169088161460008161023157836001600160a01b0316635a76f25e6040518163ffffffff1660e01b8152600401602060405180830381865afa158015610208573d6000803e3d6000fd5b505050506040513d601f19601f8201168201806040525081019061022c9190610589565b610293565b836001600160a01b031663443cb4bc6040518163ffffffff1660e01b8152600401602060405180830381865afa15801561026f573d6000803e3d6000fd5b505050506040513d601f19601f820116820180604052508101906102939190610589565b905060008261030357846001600160a01b031663443cb4bc6040518163ffffffff1660e01b8152600401602060405180830381865afa1580156102da573d6000803e3d6000fd5b505050506040513d601f19601f820116820180604052508101906102fe9190610589565b610365565b846001600160a01b0316635a76f25e6040518163ffffffff1660e01b8152600401602060405180830381865afa158015610341573d6000803e3d6000fd5b505050506040513d601f19601f820116820180604052508101906103659190610589565b9050600061037460028a6105b8565b90506000610382828b6105da565b604051630153543560e21b81526004810184905260248101869052604481018590529091506000906001600160a01b038a169063054d50d490606401602060405180830381865afa1580156103db573d6000803e3d6000fd5b505050506040513d601f19601f820116820180604052508101906103ff9190610589565b9050600061040d85876105f1565b90506000896001600160a01b03166318160ddd6040518163ffffffff1660e01b8152600401602060405180830381865afa15801561044f573d6000803e3d6000fd5b505050506040513d601f19601f820116820180604052508101906104739190610589565b905060008161048a84670de0b6b3a76400006105f1565b61049491906105b8565b905060006104a28589610610565b6104ac878b610610565b6104b691906105f1565b905060006104c485836105da565b9050826104d982670de0b6b3a76400006105f1565b6104e391906105b8565b9e5050505050505050505050505050505b949350505050565b6001600160a01b038116811461051157600080fd5b50565b6000806000806080858703121561052a57600080fd5b8435610535816104fc565b93506020850135610545816104fc565b92506040850135610555816104fc565b9396929550929360600135925050565b60006020828403121561057757600080fd5b8151610582816104fc565b9392505050565b60006020828403121561059b57600080fd5b5051919050565b634e487b7160e01b600052601160045260246000fd5b6000826105d557634e487b7160e01b600052601260045260246000fd5b500490565b6000828210156105ec576105ec6105a2565b500390565b600081600019048311821515161561060b5761060b6105a2565b500290565b60008219821115610623576106236105a2565b50019056fea2646970667358221220de803d5a3e39c877785fdea1cba13bb546fec1ab0c5db73b85afa24f7d641e7064736f6c634300080e0033",
  "linkReferences": {},
  "deployedLinkReferences": {}
}