{
  "_format": "hh-sol-artifact-1",
  "contractName": "Lotto",
  "sourceName": "contracts/Lottery.sol",
  "abi": [
    {
      "inputs": [
        {
          "internalType": "uint64",
          "name": "subscriptionId",
          "type": "uint64"
        },
        {
          "internalType": "address",
          "name": "Miner_",
          "type": "address"
        },
        {
          "internalType": "address",
          "name": "treasury_",
          "type": "address"
        },
        {
          "internalType": "address",
          "name": "rewardToken_",
          "type": "address"
        },
        {
          "internalType": "address",
          "name": "GRAPE_",
          "type": "address"
        },
        {
          "internalType": "address",
          "name": "bot_",
          "type": "address"
        }
      ],
      "stateMutability": "nonpayable",
      "type": "constructor"
    },
    {
      "inputs": [
        {
          "internalType": "address",
          "name": "have",
          "type": "address"
        },
        {
          "internalType": "address",
          "name": "want",
          "type": "address"
        }
      ],
      "name": "OnlyCoordinatorCanFulfill",
      "type": "error"
    },
    {
      "inputs": [],
      "name": "DAILY_WINNERS",
      "outputs": [
        {
          "internalType": "uint32",
          "name": "",
          "type": "uint32"
        }
      ],
      "stateMutability": "view",
      "type": "function"
    },
    {
      "inputs": [],
      "name": "GRAPE",
      "outputs": [
        {
          "internalType": "address",
          "name": "",
          "type": "address"
        }
      ],
      "stateMutability": "view",
      "type": "function"
    },
    {
      "inputs": [],
      "name": "GRAPES_BURNED_PER_TEN_TICKETS",
      "outputs": [
        {
          "internalType": "uint256",
          "name": "",
          "type": "uint256"
        }
      ],
      "stateMutability": "view",
      "type": "function"
    },
    {
      "inputs": [],
      "name": "LP_Per_Ticket",
      "outputs": [
        {
          "internalType": "uint256",
          "name": "",
          "type": "uint256"
        }
      ],
      "stateMutability": "view",
      "type": "function"
    },
    {
      "inputs": [],
      "name": "MONTHLY_WINNERS",
      "outputs": [
        {
          "internalType": "uint32",
          "name": "",
          "type": "uint32"
        }
      ],
      "stateMutability": "view",
      "type": "function"
    },
    {
      "inputs": [],
      "name": "Miner",
      "outputs": [
        {
          "internalType": "address",
          "name": "",
          "type": "address"
        }
      ],
      "stateMutability": "view",
      "type": "function"
    },
    {
      "inputs": [
        {
          "internalType": "address",
          "name": "user",
          "type": "address"
        }
      ],
      "name": "balanceOf",
      "outputs": [
        {
          "internalType": "uint256",
          "name": "nTickets",
          "type": "uint256"
        }
      ],
      "stateMutability": "view",
      "type": "function"
    },
    {
      "inputs": [],
      "name": "bot",
      "outputs": [
        {
          "internalType": "address",
          "name": "",
          "type": "address"
        }
      ],
      "stateMutability": "view",
      "type": "function"
    },
    {
      "inputs": [
        {
          "internalType": "uint256",
          "name": "batches",
          "type": "uint256"
        }
      ],
      "name": "burnGRAPE",
      "outputs": [],
      "stateMutability": "nonpayable",
      "type": "function"
    },
    {
      "inputs": [
        {
          "internalType": "address",
          "name": "user",
          "type": "address"
        }
      ],
      "name": "chanceToWinDaily",
      "outputs": [
        {
          "internalType": "uint256",
          "name": "",
          "type": "uint256"
        },
        {
          "internalType": "uint256",
          "name": "",
          "type": "uint256"
        }
      ],
      "stateMutability": "view",
      "type": "function"
    },
    {
      "inputs": [
        {
          "internalType": "address",
          "name": "user",
          "type": "address"
        },
        {
          "internalType": "uint256",
          "name": "amount",
          "type": "uint256"
        }
      ],
      "name": "compoundoor",
      "outputs": [],
      "stateMutability": "nonpayable",
      "type": "function"
    },
    {
      "inputs": [],
      "name": "currentTicketID",
      "outputs": [
        {
          "internalType": "uint256",
          "name": "",
          "type": "uint256"
        }
      ],
      "stateMutability": "view",
      "type": "function"
    },
    {
      "inputs": [],
      "name": "currentTicketRangeID",
      "outputs": [
        {
          "internalType": "uint256",
          "name": "",
          "type": "uint256"
        }
      ],
      "stateMutability": "view",
      "type": "function"
    },
    {
      "inputs": [],
      "name": "dailyDepositPercent",
      "outputs": [
        {
          "internalType": "uint256",
          "name": "",
          "type": "uint256"
        }
      ],
      "stateMutability": "view",
      "type": "function"
    },
    {
      "inputs": [],
      "name": "dailyDepositPot",
      "outputs": [
        {
          "internalType": "uint256",
          "name": "",
          "type": "uint256"
        }
      ],
      "stateMutability": "view",
      "type": "function"
    },
    {
      "inputs": [],
      "name": "dailyGas",
      "outputs": [
        {
          "internalType": "uint32",
          "name": "",
          "type": "uint32"
        }
      ],
      "stateMutability": "view",
      "type": "function"
    },
    {
      "inputs": [],
      "name": "day",
      "outputs": [
        {
          "internalType": "uint256",
          "name": "",
          "type": "uint256"
        }
      ],
      "stateMutability": "view",
      "type": "function"
    },
    {
      "inputs": [
        {
          "internalType": "address",
          "name": "token",
          "type": "address"
        },
        {
          "internalType": "uint256",
          "name": "amount",
          "type": "uint256"
        }
      ],
      "name": "deposit",
      "outputs": [],
      "stateMutability": "nonpayable",
      "type": "function"
    },
    {
      "inputs": [],
      "name": "forceNewDay",
      "outputs": [],
      "stateMutability": "nonpayable",
      "type": "function"
    },
    {
      "inputs": [],
      "name": "forceNewDayAndMonth",
      "outputs": [],
      "stateMutability": "nonpayable",
      "type": "function"
    },
    {
      "inputs": [],
      "name": "forceNewMonth",
      "outputs": [],
      "stateMutability": "nonpayable",
      "type": "function"
    },
    {
      "inputs": [
        {
          "internalType": "address",
          "name": "user",
          "type": "address"
        },
        {
          "internalType": "uint256",
          "name": "nTickets",
          "type": "uint256"
        }
      ],
      "name": "giftTickets",
      "outputs": [],
      "stateMutability": "nonpayable",
      "type": "function"
    },
    {
      "inputs": [],
      "name": "hardResetLottoTimers",
      "outputs": [],
      "stateMutability": "nonpayable",
      "type": "function"
    },
    {
      "inputs": [],
      "name": "hardResetRewardTokenPot",
      "outputs": [],
      "stateMutability": "nonpayable",
      "type": "function"
    },
    {
      "inputs": [],
      "name": "isNewDay",
      "outputs": [
        {
          "internalType": "bool",
          "name": "",
          "type": "bool"
        }
      ],
      "stateMutability": "view",
      "type": "function"
    },
    {
      "inputs": [],
      "name": "isNewMonth",
      "outputs": [
        {
          "internalType": "bool",
          "name": "",
          "type": "bool"
        }
      ],
      "stateMutability": "view",
      "type": "function"
    },
    {
      "inputs": [],
      "name": "largestDaily",
      "outputs": [
        {
          "internalType": "address",
          "name": "depositor",
          "type": "address"
        },
        {
          "internalType": "uint256",
          "name": "amount",
          "type": "uint256"
        }
      ],
      "stateMutability": "view",
      "type": "function"
    },
    {
      "inputs": [],
      "name": "largestDailyPercent",
      "outputs": [
        {
          "internalType": "uint256",
          "name": "",
          "type": "uint256"
        }
      ],
      "stateMutability": "view",
      "type": "function"
    },
    {
      "inputs": [],
      "name": "largestDailyPot",
      "outputs": [
        {
          "internalType": "uint256",
          "name": "",
          "type": "uint256"
        }
      ],
      "stateMutability": "view",
      "type": "function"
    },
    {
      "inputs": [],
      "name": "lastDay",
      "outputs": [
        {
          "internalType": "uint256",
          "name": "",
          "type": "uint256"
        }
      ],
      "stateMutability": "view",
      "type": "function"
    },
    {
      "inputs": [],
      "name": "lastMonth",
      "outputs": [
        {
          "internalType": "uint256",
          "name": "",
          "type": "uint256"
        }
      ],
      "stateMutability": "view",
      "type": "function"
    },
    {
      "inputs": [],
      "name": "month",
      "outputs": [
        {
          "internalType": "uint256",
          "name": "",
          "type": "uint256"
        }
      ],
      "stateMutability": "view",
      "type": "function"
    },
    {
      "inputs": [],
      "name": "monthlyGas",
      "outputs": [
        {
          "internalType": "uint32",
          "name": "",
          "type": "uint32"
        }
      ],
      "stateMutability": "view",
      "type": "function"
    },
    {
      "inputs": [
        {
          "internalType": "uint256",
          "name": "",
          "type": "uint256"
        }
      ],
      "name": "monthlyWinners",
      "outputs": [
        {
          "internalType": "address",
          "name": "",
          "type": "address"
        }
      ],
      "stateMutability": "view",
      "type": "function"
    },
    {
      "inputs": [],
      "name": "monthlyWinnersPercent",
      "outputs": [
        {
          "internalType": "uint256",
          "name": "",
          "type": "uint256"
        }
      ],
      "stateMutability": "view",
      "type": "function"
    },
    {
      "inputs": [],
      "name": "monthlyWinnersPot",
      "outputs": [
        {
          "internalType": "uint256",
          "name": "",
          "type": "uint256"
        }
      ],
      "stateMutability": "view",
      "type": "function"
    },
    {
      "inputs": [],
      "name": "newDay",
      "outputs": [],
      "stateMutability": "nonpayable",
      "type": "function"
    },
    {
      "inputs": [],
      "name": "percentDenominator",
      "outputs": [
        {
          "internalType": "uint256",
          "name": "",
          "type": "uint256"
        }
      ],
      "stateMutability": "view",
      "type": "function"
    },
    {
      "inputs": [
        {
          "internalType": "uint256",
          "name": "requestId",
          "type": "uint256"
        },
        {
          "internalType": "uint256[]",
          "name": "randomWords",
          "type": "uint256[]"
        }
      ],
      "name": "rawFulfillRandomWords",
      "outputs": [],
      "stateMutability": "nonpayable",
      "type": "function"
    },
    {
      "inputs": [
        {
          "internalType": "address",
          "name": "user",
          "type": "address"
        },
        {
          "internalType": "uint256",
          "name": "amount",
          "type": "uint256"
        }
      ],
      "name": "register",
      "outputs": [],
      "stateMutability": "nonpayable",
      "type": "function"
    },
    {
      "inputs": [],
      "name": "rewardToken",
      "outputs": [
        {
          "internalType": "address",
          "name": "",
          "type": "address"
        }
      ],
      "stateMutability": "view",
      "type": "function"
    },
    {
      "inputs": [],
      "name": "rollOverPercentage",
      "outputs": [
        {
          "internalType": "uint256",
          "name": "",
          "type": "uint256"
        }
      ],
      "stateMutability": "view",
      "type": "function"
    },
    {
      "inputs": [
        {
          "internalType": "address",
          "name": "_bot",
          "type": "address"
        }
      ],
      "name": "setAuthBot",
      "outputs": [],
      "stateMutability": "nonpayable",
      "type": "function"
    },
    {
      "inputs": [
        {
          "internalType": "uint256",
          "name": "burnedPerTen",
          "type": "uint256"
        }
      ],
      "name": "setGRAPESBurnedPerTenTickets",
      "outputs": [],
      "stateMutability": "nonpayable",
      "type": "function"
    },
    {
      "inputs": [
        {
          "internalType": "uint32",
          "name": "dailyGas_",
          "type": "uint32"
        },
        {
          "internalType": "uint32",
          "name": "monthlyGas_",
          "type": "uint32"
        }
      ],
      "name": "setGasLimits",
      "outputs": [],
      "stateMutability": "nonpayable",
      "type": "function"
    },
    {
      "inputs": [
        {
          "internalType": "uint256",
          "name": "newLPPerTicketValue",
          "type": "uint256"
        }
      ],
      "name": "setLPPerTicket",
      "outputs": [],
      "stateMutability": "nonpayable",
      "type": "function"
    },
    {
      "inputs": [
        {
          "internalType": "uint256",
          "name": "largestDaily_",
          "type": "uint256"
        },
        {
          "internalType": "uint256",
          "name": "daily_",
          "type": "uint256"
        },
        {
          "internalType": "uint256",
          "name": "monthly_",
          "type": "uint256"
        }
      ],
      "name": "setRewardPotPercentages",
      "outputs": [],
      "stateMutability": "nonpayable",
      "type": "function"
    },
    {
      "inputs": [
        {
          "internalType": "uint256",
          "name": "newPercent",
          "type": "uint256"
        }
      ],
      "name": "setRollOverPercentage",
      "outputs": [],
      "stateMutability": "nonpayable",
      "type": "function"
    },
    {
      "inputs": [
        {
          "internalType": "uint64",
          "name": "subscriptionId_",
          "type": "uint64"
        }
      ],
      "name": "setSubscriptionId",
      "outputs": [],
      "stateMutability": "nonpayable",
      "type": "function"
    },
    {
      "inputs": [
        {
          "internalType": "address",
          "name": "treasury_",
          "type": "address"
        }
      ],
      "name": "setTreasury",
      "outputs": [],
      "stateMutability": "nonpayable",
      "type": "function"
    },
    {
      "inputs": [],
      "name": "startTime",
      "outputs": [],
      "stateMutability": "nonpayable",
      "type": "function"
    },
    {
      "inputs": [
        {
          "internalType": "uint256",
          "name": "",
          "type": "uint256"
        }
      ],
      "name": "ticketRanges",
      "outputs": [
        {
          "internalType": "uint256",
          "name": "lower",
          "type": "uint256"
        },
        {
          "internalType": "uint256",
          "name": "upper",
          "type": "uint256"
        },
        {
          "internalType": "address",
          "name": "user",
          "type": "address"
        }
      ],
      "stateMutability": "view",
      "type": "function"
    },
    {
      "inputs": [],
      "name": "timeLeftUntilNewDay",
      "outputs": [
        {
          "internalType": "uint256",
          "name": "",
          "type": "uint256"
        }
      ],
      "stateMutability": "view",
      "type": "function"
    },
    {
      "inputs": [],
      "name": "timeLeftUntilNewMonth",
      "outputs": [
        {
          "internalType": "uint256",
          "name": "",
          "type": "uint256"
        }
      ],
      "stateMutability": "view",
      "type": "function"
    },
    {
      "inputs": [],
      "name": "treasury",
      "outputs": [
        {
          "internalType": "address",
          "name": "",
          "type": "address"
        }
      ],
      "stateMutability": "view",
      "type": "function"
    },
    {
      "inputs": [
        {
          "internalType": "address",
          "name": "",
          "type": "address"
        }
      ],
      "name": "userWinnings",
      "outputs": [
        {
          "internalType": "uint256",
          "name": "",
          "type": "uint256"
        }
      ],
      "stateMutability": "view",
      "type": "function"
    },
    {
      "inputs": [],
      "name": "withdrawAVAX",
      "outputs": [],
      "stateMutability": "nonpayable",
      "type": "function"
    },
    {
      "inputs": [
        {
          "internalType": "contract IERC20",
          "name": "token_",
          "type": "address"
        }
      ],
      "name": "withdrawTokens",
      "outputs": [],
      "stateMutability": "nonpayable",
      "type": "function"
    }
  ],
  "bytecode": "0x60e06040526802b5e3af16b188000060015567049f0dbc56348000600255600a600c556037600d556028600e556005600f556064601055601180546001600160401b031916660f4240000f42401790557f89630569c9567e43c4fe7b1633258df9f2531b62f2352fa721cf3162ee4ecb466016553480156200008057600080fd5b5060405162002cd138038062002cd1833981016040819052620000a3916200015d565b73d5d517abe5cf79b7e95ec98db0f0277788aff6346080819052601580546001600160401b03909716600160a01b026001600160e01b031990971696909617179094556001600160a01b0392831660a052600080549284166001600160a01b03199390931692909217909155601180549183166801000000000000000002600160401b600160e01b03199092169190911790551660c052620001da565b80516001600160a01b03811681146200015857600080fd5b919050565b600080600080600060a086880312156200017657600080fd5b85516001600160401b03811681146200018e57600080fd5b94506200019e6020870162000140565b9350620001ae6040870162000140565b9250620001be6060870162000140565b9150620001ce6080870162000140565b90509295509295909350565b60805160a05160c051612a3b62000296600039600081816103c00152818161154c01526116050152600081816103670152818161075001528181610819015281816109a501528181610b3301528181610bf701528181610e190152818161101601528181611101015281816112470152818161133f0152818161143f0152818161168b015281816117a5015281816118740152818161196c01528181611a4c0152611b06015260008181610ab80152610afa0152612a3b6000f3fe608060405234801561001057600080fd5b506004361061035d5760003560e01c806370a08231116101d3578063afac2b3611610104578063d8a08d8a116100a2578063f0f442601161007c578063f0f442601461070f578063f53c7d0814610722578063f7c618c11461072b578063ffd5017b1461074557600080fd5b8063d8a08d8a146106e1578063ea7b4f77146106f4578063ec7498961461070757600080fd5b8063be6db2ac116100de578063be6db2ac1461066c578063c212231e14610674578063c534797d1461067c578063c6b18cd4146106d857600080fd5b8063afac2b3614610629578063b545252c1461063c578063bd4251911461065457600080fd5b80639039e01d11610171578063a7e62ac91161014b578063a7e62ac9146105e7578063a815a4d4146105f0578063a982116314610610578063a9f867701461062057600080fd5b80639039e01d146105c35780639063863b146105cb57806399d786ca146105de57600080fd5b80637b76ac91116101ad5780637b76ac91146105945780637d6830371461059e578063841d9dd4146105a757806389a7276e146105b057600080fd5b806370a0823114610566578063787e3c891461057957806378e979251461058c57600080fd5b80633f5955eb116102ad57806361d027b31161024b5780636ae89e42116102255780636ae89e421461052f5780636b0c932d146105425780636d705ebb1461054b578063702921f51461055e57600080fd5b806361d027b31461050057806368bc0b1b146105135780636aa2b8281461052657600080fd5b806349df728c1161028757806349df728c146104b457806351f837d1146104c75780635511fe3a146104ef5780635519914d146104f857600080fd5b80633f5955eb14610491578063421e3f911461049957806347e7ef24146104a157600080fd5b80631bb5d75e1161031a578063239a8222116102f4578063239a82221461046f57806323ca94df146104785780633d1eb10e146104805780633ddc10bb1461048957600080fd5b80631bb5d75e146104375780631d111d13146104545780631fe543e31461045c57600080fd5b806302abb4c5146103625780630743fe4e146103a6578063117a01ef146103bb57806313006aab146103e257806313196e9d146103f95780631b62cb5714610401575b600080fd5b6103897f000000000000000000000000000000000000000000000000000000000000000081565b6040516001600160a01b0390911681526020015b60405180910390f35b6103b96103b43660046126ba565b61074e565b005b6103897f000000000000000000000000000000000000000000000000000000000000000081565b6103eb60105481565b60405190815260200161039d565b6103b9610817565b600854600954610418916001600160a01b03169082565b604080516001600160a01b03909316835260208301919091520161039d565b61043f600381565b60405163ffffffff909116815260200161039d565b6103b96109a3565b6103b961046a3660046126fc565b610aad565b6103eb60125481565b6103b9610b31565b6103eb60045481565b61043f600281565b6103b9610bf5565b6103eb610d05565b6103b96104af3660046126ba565b610d43565b6103b96104c23660046127c6565b610e17565b6104da6104d53660046127c6565b610faa565b6040805192835260208301919091520161039d565b6103eb60025481565b6103eb610fc2565b600054610389906001600160a01b031681565b6103896105213660046127ea565b610fea565b6103eb600c5481565b6103b961053d36600461281c565b611014565b6103eb600a5481565b6103b96105593660046126ba565b6110f6565b6103eb6111c4565b6103eb6105743660046127c6565b6111d5565b6103b96105873660046127ea565b611245565b6103b961133d565b6103eb6201518081565b6103eb600d5481565b6103eb60145481565b6103b96105be36600461284f565b61143d565b6103b961151b565b6103b96105d93660046127ea565b611545565b6103eb600b5481565b6103eb600e5481565b6103eb6105fe3660046127c6565b60066020526000908152604090205481565b60115461043f9063ffffffff1681565b6103eb60015481565b6103b96106373660046127ea565b611689565b610644611788565b604051901515815260200161039d565b60115461043f90640100000000900463ffffffff1681565b6103b96117a3565b610644611855565b6106b461068a3660046127ea565b6003602052600090815260409020805460018201546002909201549091906001600160a01b031683565b6040805193845260208401929092526001600160a01b03169082015260600161039d565b6103eb600f5481565b6103b96106ef3660046127ea565b611872565b6103b961070236600461287b565b61196a565b6103b9611a4a565b6103b961071d3660046127c6565b611b04565b6103eb60055481565b60115461038990600160401b90046001600160a01b031681565b6103eb60135481565b7f00000000000000000000000000000000000000000000000000000000000000006001600160a01b031663893d20e86040518163ffffffff1660e01b8152600401602060405180830381865afa1580156107ac573d6000803e3d6000fd5b505050506040513d601f19601f820116820180604052508101906107d091906128a5565b6001600160a01b0316336001600160a01b0316146108095760405162461bcd60e51b8152600401610800906128c2565b60405180910390fd5b6108138282611c1d565b5050565b7f00000000000000000000000000000000000000000000000000000000000000006001600160a01b031663893d20e86040518163ffffffff1660e01b8152600401602060405180830381865afa158015610875573d6000803e3d6000fd5b505050506040513d601f19601f8201168201806040525081019061089991906128a5565b6001600160a01b0316336001600160a01b0316146108c95760405162461bcd60e51b8152600401610800906128c2565b6011546040516370a0823160e01b8152306004820152600091600160401b90046001600160a01b0316906370a0823190602401602060405180830381865afa158015610919573d6000803e3d6000fd5b505050506040513d601f19601f8201168201806040525081019061093d91906128f9565b90506000601054600d54836109529190612928565b61095c919061295d565b90506000601054600e54846109719190612928565b61097b919061295d565b905060006109898284612971565b6109939085612989565b6012939093555060135560145550565b7f00000000000000000000000000000000000000000000000000000000000000006001600160a01b031663893d20e86040518163ffffffff1660e01b8152600401602060405180830381865afa158015610a01573d6000803e3d6000fd5b505050506040513d601f19601f82011682018060405250810190610a2591906128a5565b6001600160a01b0316336001600160a01b031614610a555760405162461bcd60e51b8152600401610800906128c2565b604051600090339047908381818185875af1925050503d8060008114610a97576040519150601f19603f3d011682016040523d82523d6000602084013e610a9c565b606091505b5050905080610aaa57600080fd5b50565b336001600160a01b037f00000000000000000000000000000000000000000000000000000000000000001614610b275760405163073e64fd60e21b81523360048201526001600160a01b037f0000000000000000000000000000000000000000000000000000000000000000166024820152604401610800565b6108138282611ce4565b7f00000000000000000000000000000000000000000000000000000000000000006001600160a01b031663893d20e86040518163ffffffff1660e01b8152600401602060405180830381865afa158015610b8f573d6000803e3d6000fd5b505050506040513d601f19601f82011682018060405250810190610bb391906128a5565b6001600160a01b0316336001600160a01b031614610be35760405162461bcd60e51b8152600401610800906128c2565b610beb611d5d565b610bf3611e0b565b565b7f00000000000000000000000000000000000000000000000000000000000000006001600160a01b031663893d20e86040518163ffffffff1660e01b8152600401602060405180830381865afa158015610c53573d6000803e3d6000fd5b505050506040513d601f19601f82011682018060405250810190610c7791906128a5565b6001600160a01b0316336001600160a01b031614610ca75760405162461bcd60e51b8152600401610800906128c2565b6000600a54118015610cbb57506000600b54115b610cfa5760405162461bcd60e51b815260206004820152601060248201526f43616c6c20737461727454696d65282960801b6044820152606401610800565b42600a819055600b55565b6000610d0f611855565b610d3d57600b54610d209042612989565b610d2e62015180601e612928565b610d389190612989565b905090565b50600090565b6000610d4f8383611ec1565b6011549091506001600160a01b03600160401b909104811690841603610e12576000601054600d5483610d829190612928565b610d8c919061295d565b90506000601054600e5484610da19190612928565b610dab919061295d565b90506000610db98284612971565b610dc39085612989565b90508260126000828254610dd79190612971565b925050819055508160136000828254610df09190612971565b925050819055508060146000828254610e099190612971565b90915550505050505b505050565b7f00000000000000000000000000000000000000000000000000000000000000006001600160a01b031663893d20e86040518163ffffffff1660e01b8152600401602060405180830381865afa158015610e75573d6000803e3d6000fd5b505050506040513d601f19601f82011682018060405250810190610e9991906128a5565b6001600160a01b0316336001600160a01b031614610ec95760405162461bcd60e51b8152600401610800906128c2565b6040516370a0823160e01b81523060048201526001600160a01b0382169063a9059cbb90339083906370a0823190602401602060405180830381865afa158015610f17573d6000803e3d6000fd5b505050506040513d601f19601f82011682018060405250810190610f3b91906128f9565b6040516001600160e01b031960e085901b1681526001600160a01b03909216600483015260248201526044016020604051808303816000875af1158015610f86573d6000803e3d6000fd5b505050506040513d601f19601f8201168201806040525081019061081391906129a0565b600080610fb6836111d5565b60055491509150915091565b6000610fcc611788565b610d3d57600a54610fdd9042612989565b610d389062015180612989565b60078181548110610ffa57600080fd5b6000918252602090912001546001600160a01b0316905081565b7f00000000000000000000000000000000000000000000000000000000000000006001600160a01b031663893d20e86040518163ffffffff1660e01b8152600401602060405180830381865afa158015611072573d6000803e3d6000fd5b505050506040513d601f19601f8201168201806040525081019061109691906128a5565b6001600160a01b0316336001600160a01b0316146110c65760405162461bcd60e51b8152600401610800906128c2565b6011805463ffffffff9283166401000000000267ffffffffffffffff199091169290931691909117919091179055565b336001600160a01b037f0000000000000000000000000000000000000000000000000000000000000000161461116e5760405162461bcd60e51b815260206004820152601d60248201527f4f6e6c79204d696e65722043616e2052656769737465722055736572730000006044820152606401610800565b600954811115611199576009819055600880546001600160a01b0319166001600160a01b0384161790555b6002548110610813576000600254826111b2919061295d565b90508015610e1257610e128382611c1d565b6111d262015180601e612928565b81565b600454600090815b8181101561123e576000818152600360205260409020600201546001600160a01b0380861691160361123657600081815260036020526040902080546001909101546112299190612989565b6112339084612971565b92505b6001016111dd565b5050919050565b7f00000000000000000000000000000000000000000000000000000000000000006001600160a01b031663893d20e86040518163ffffffff1660e01b8152600401602060405180830381865afa1580156112a3573d6000803e3d6000fd5b505050506040513d601f19601f820116820180604052508101906112c791906128a5565b6001600160a01b0316336001600160a01b0316146112f75760405162461bcd60e51b8152600401610800906128c2565b600081116113385760405162461bcd60e51b815260206004820152600e60248201526d43616e6e6f74204265205a65726f60901b6044820152606401610800565b600155565b7f00000000000000000000000000000000000000000000000000000000000000006001600160a01b031663893d20e86040518163ffffffff1660e01b8152600401602060405180830381865afa15801561139b573d6000803e3d6000fd5b505050506040513d601f19601f820116820180604052508101906113bf91906128a5565b6001600160a01b0316336001600160a01b0316146113ef5760405162461bcd60e51b8152600401610800906128c2565b600a541580156113ff5750600b54155b610cfa5760405162461bcd60e51b815260206004820152600f60248201526e105b1c9958591e4814dd185c9d1959608a1b6044820152606401610800565b7f00000000000000000000000000000000000000000000000000000000000000006001600160a01b031663893d20e86040518163ffffffff1660e01b8152600401602060405180830381865afa15801561149b573d6000803e3d6000fd5b505050506040513d601f19601f820116820180604052508101906114bf91906128a5565b6001600160a01b0316336001600160a01b0316146114ef5760405162461bcd60e51b8152600401610800906128c2565b600d839055600e829055600f819055806115098385612971565b6115139190612971565b601055505050565b611523611788565b1561153057611530611d5d565b611538611855565b15610bf357610bf3611e0b565b600061157e7f0000000000000000000000000000000000000000000000000000000000000000836001546115799190612928565b611ec1565b90508160015461158e9190612928565b81146115dc5760405162461bcd60e51b815260206004820152601760248201527f496e76616c696420546f6b656e732052656365697665640000000000000000006044820152606401610800565b60005460405163a9059cbb60e01b81526001600160a01b039182166004820152602481018390527f00000000000000000000000000000000000000000000000000000000000000009091169063a9059cbb906044016020604051808303816000875af1158015611650573d6000803e3d6000fd5b505050506040513d601f19601f8201168201806040525081019061167491906129a0565b506108133361168484600a612928565b611c1d565b7f00000000000000000000000000000000000000000000000000000000000000006001600160a01b031663893d20e86040518163ffffffff1660e01b8152600401602060405180830381865afa1580156116e7573d6000803e3d6000fd5b505050506040513d601f19601f8201168201806040525081019061170b91906128a5565b6001600160a01b0316336001600160a01b03161461173b5760405162461bcd60e51b8152600401610800906128c2565b606481106117835760405162461bcd60e51b815260206004820152601560248201527450657263656e74204f7574204f6620426f756e647360581b6044820152606401610800565b600c55565b600062015180600a544261179c9190612989565b1015905090565b7f00000000000000000000000000000000000000000000000000000000000000006001600160a01b031663893d20e86040518163ffffffff1660e01b8152600401602060405180830381865afa158015611801573d6000803e3d6000fd5b505050506040513d601f19601f8201168201806040525081019061182591906128a5565b6001600160a01b0316336001600160a01b031614610beb5760405162461bcd60e51b8152600401610800906128c2565b600061186562015180601e612928565b600b5461179c9042612989565b7f00000000000000000000000000000000000000000000000000000000000000006001600160a01b031663893d20e86040518163ffffffff1660e01b8152600401602060405180830381865afa1580156118d0573d6000803e3d6000fd5b505050506040513d601f19601f820116820180604052508101906118f491906128a5565b6001600160a01b0316336001600160a01b0316146119245760405162461bcd60e51b8152600401610800906128c2565b600081116119655760405162461bcd60e51b815260206004820152600e60248201526d43616e6e6f74204265205a65726f60901b6044820152606401610800565b600255565b7f00000000000000000000000000000000000000000000000000000000000000006001600160a01b031663893d20e86040518163ffffffff1660e01b8152600401602060405180830381865afa1580156119c8573d6000803e3d6000fd5b505050506040513d601f19601f820116820180604052508101906119ec91906128a5565b6001600160a01b0316336001600160a01b031614611a1c5760405162461bcd60e51b8152600401610800906128c2565b6015805467ffffffffffffffff909216600160a01b0267ffffffffffffffff60a01b19909216919091179055565b7f00000000000000000000000000000000000000000000000000000000000000006001600160a01b031663893d20e86040518163ffffffff1660e01b8152600401602060405180830381865afa158015611aa8573d6000803e3d6000fd5b505050506040513d601f19601f82011682018060405250810190611acc91906128a5565b6001600160a01b0316336001600160a01b031614611afc5760405162461bcd60e51b8152600401610800906128c2565b610bf3611d5d565b7f00000000000000000000000000000000000000000000000000000000000000006001600160a01b031663893d20e86040518163ffffffff1660e01b8152600401602060405180830381865afa158015611b62573d6000803e3d6000fd5b505050506040513d601f19601f82011682018060405250810190611b8691906128a5565b6001600160a01b0316336001600160a01b031614611bb65760405162461bcd60e51b8152600401610800906128c2565b6001600160a01b038116611bfb5760405162461bcd60e51b815260206004820152600c60248201526b5a65726f204164647265737360a01b6044820152606401610800565b600080546001600160a01b0319166001600160a01b0392909216919091179055565b6000600454600014611c5357600360006001600454611c3c9190612989565b815260200190815260200160002060010154611c56565b60005b60045460009081526003602052604090208190559050611c768282612971565b60048054600090815260036020526040808220600101939093559054815290812060020180546001600160a01b0319166001600160a01b03861617905560058054849290611cc5908490612971565b909155505060048054906000611cda836129c2565b9190505550505050565b6017548203611d4b57611cf561208a565b611cfe81612122565b60005b600454811015611d3c57600081815260036020526040812081815560018082019290925560020180546001600160a01b031916905501611d01565b50600060058190556004555050565b6018548203610813576108138161227b565b42600a556015546016546011546040516305d3b1d360e41b81526004810192909252600160a01b830467ffffffffffffffff1660248301526014604483015263ffffffff166064820152600360848201526001600160a01b0390911690635d3b1d309060a4016020604051808303816000875af1158015611de2573d6000803e3d6000fd5b505050506040513d601f19601f82011682018060405250810190611e0691906128f9565b601755565b42600b556015546016546011546040516305d3b1d360e41b81526004810192909252600160a01b830467ffffffffffffffff16602483015260146044830152640100000000900463ffffffff166064820152600260848201526001600160a01b0390911690635d3b1d309060a4016020604051808303816000875af1158015611e98573d6000803e3d6000fd5b505050506040513d601f19601f82011682018060405250810190611ebc91906128f9565b601855565b6040516370a0823160e01b815230600482015260009081906001600160a01b038516906370a0823190602401602060405180830381865afa158015611f0a573d6000803e3d6000fd5b505050506040513d601f19601f82011682018060405250810190611f2e91906128f9565b6040516323b872dd60e01b8152336004820152306024820152604481018590529091506000906001600160a01b038616906323b872dd906064016020604051808303816000875af1158015611f87573d6000803e3d6000fd5b505050506040513d601f19601f82011682018060405250810190611fab91906129a0565b6040516370a0823160e01b815230600482015290915060009083906001600160a01b038816906370a0823190602401602060405180830381865afa158015611ff7573d6000803e3d6000fd5b505050506040513d601f19601f8201168201806040525081019061201b91906128f9565b6120259190612989565b90508180156120345750600081115b80156120405750848111155b6120815760405162461bcd60e51b81526020600482015260126024820152714572726f72205472616e7366657246726f6d60701b6044820152606401610800565b95945050505050565b600954158015906120a557506008546001600160a01b031615155b1561210b5760006064600c5460646120bd9190612989565b6012546120ca9190612928565b6120d4919061295d565b905080156121095780601260008282546120ee9190612989565b9091555050600854612109906001600160a01b0316826123a4565b505b600880546001600160a01b03191690556000600955565b60055415806121315750600454155b156121395750565b60408051600380825260808201909252600090826020820160608036833701905050905060005b82811015612220576000612199600554868481518110612182576121826129db565b602002602001015161219491906129f1565b61253d565b9050808383815181106121ae576121ae6129db565b6001600160a01b03928316602091820292909201015281161561221757600780546001810182556000919091527fa66cc928b5edb82af9bd49922954155ab7b0942694bea4ce44661d9a8736c6880180546001600160a01b0319166001600160a01b0383161790555b50600101612160565b5060006064600c5460646122349190612989565b6013546122419190612928565b61224b919061295d565b905080156122755780601360008282546122659190612989565b90915550612275905082826125b0565b50505050565b6007546000036122885750565b604080516002808252606082019092526000908281602001602082028036833701905050905060005b82811015612343576007805485518690849081106122d1576122d16129db565b60200260200101516122e391906129f1565b815481106122f3576122f36129db565b9060005260206000200160009054906101000a90046001600160a01b0316828281518110612323576123236129db565b6001600160a01b03909216602092830291909101909101526001016122b1565b5060006064600c5460646123579190612989565b6014546123649190612928565b61236e919061295d565b905080156123985780601460008282546123889190612989565b90915550612398905082826125b0565b61227560076000612673565b6001600160a01b0382166123b6575050565b6011546040516370a0823160e01b8152306004820152600091600160401b90046001600160a01b0316906370a0823190602401602060405180830381865afa158015612406573d6000803e3d6000fd5b505050506040513d601f19601f8201168201806040525081019061242a91906128f9565b905080821115612438578091505b8160000361244557505050565b6001600160a01b0383166000908152600660205260408120805484929061246d908490612971565b909155505060115460405163a9059cbb60e01b81526001600160a01b03858116600483015260248201859052600160401b9092049091169063a9059cbb906044016020604051808303816000875af11580156124cd573d6000803e3d6000fd5b505050506040513d601f19601f820116820180604052508101906124f191906129a0565b610e125760405162461bcd60e51b815260206004820152601960248201527f4661696c757265204f6e20546f6b656e205472616e73666572000000000000006044820152606401610800565b6000805b6004548110156125a7576000818152600360205260409020548310801590612579575060008181526003602052604090206001015483105b1561259f576000908152600360205260409020600201546001600160a01b031692915050565b600101612541565b50600092915050565b815160006125be828461295d565b905060006125cd600184612989565b6125d79083612928565b6125e19085612989565b905060005b8381101561266b5760006001600160a01b031686828151811061260b5761260b6129db565b60200260200101516001600160a01b03161461266357600061262e600186612989565b821461263a578361263c565b825b9050612661878381518110612653576126536129db565b6020026020010151826123a4565b505b6001016125e6565b505050505050565b5080546000825590600052602060002090810190610aaa91905b808211156126a1576000815560010161268d565b5090565b6001600160a01b0381168114610aaa57600080fd5b600080604083850312156126cd57600080fd5b82356126d8816126a5565b946020939093013593505050565b634e487b7160e01b600052604160045260246000fd5b6000806040838503121561270f57600080fd5b8235915060208084013567ffffffffffffffff8082111561272f57600080fd5b818601915086601f83011261274357600080fd5b813581811115612755576127556126e6565b8060051b604051601f19603f8301168101818110858211171561277a5761277a6126e6565b60405291825284820192508381018501918983111561279857600080fd5b938501935b828510156127b65784358452938501939285019261279d565b8096505050505050509250929050565b6000602082840312156127d857600080fd5b81356127e3816126a5565b9392505050565b6000602082840312156127fc57600080fd5b5035919050565b803563ffffffff8116811461281757600080fd5b919050565b6000806040838503121561282f57600080fd5b61283883612803565b915061284660208401612803565b90509250929050565b60008060006060848603121561286457600080fd5b505081359360208301359350604090920135919050565b60006020828403121561288d57600080fd5b813567ffffffffffffffff811681146127e357600080fd5b6000602082840312156128b757600080fd5b81516127e3816126a5565b60208082526019908201527f4f6e6c79204d696e6572204f776e65722043616e2043616c6c00000000000000604082015260600190565b60006020828403121561290b57600080fd5b5051919050565b634e487b7160e01b600052601160045260246000fd5b600081600019048311821515161561294257612942612912565b500290565b634e487b7160e01b600052601260045260246000fd5b60008261296c5761296c612947565b500490565b6000821982111561298457612984612912565b500190565b60008282101561299b5761299b612912565b500390565b6000602082840312156129b257600080fd5b815180151581146127e357600080fd5b6000600182016129d4576129d4612912565b5060010190565b634e487b7160e01b600052603260045260246000fd5b600082612a0057612a00612947565b50069056fea2646970667358221220c1efcb53598f3bc1b8e90b70d6551ad54892cba6b970e04d90bb458ee54e0f8064736f6c634300080e0033",
  "linkReferences": {},
  "deployedLinkReferences": {}
}